{
  "_format": "hh-sol-artifact-1",
  "contractName": "MyNFT",
  "sourceName": "contracts/nft.sol",
  "abi": [
    {
      "inputs": [
        {
          "internalType": "string",
          "name": "_name",
          "type": "string"
        },
        {
          "internalType": "string",
          "name": "_symbol",
          "type": "string"
        },
        {
          "internalType": "string",
          "name": "_initBaseURI",
          "type": "string"
        },
        {
          "internalType": "string",
          "name": "_initNotRevealedUri",
          "type": "string"
        }
      ],
      "stateMutability": "nonpayable",
      "type": "constructor"
    },
    {
      "anonymous": false,
      "inputs": [
        {
          "indexed": true,
          "internalType": "address",
          "name": "owner",
          "type": "address"
        },
        {
          "indexed": true,
          "internalType": "address",
          "name": "approved",
          "type": "address"
        },
        {
          "indexed": true,
          "internalType": "uint256",
          "name": "tokenId",
          "type": "uint256"
        }
      ],
      "name": "Approval",
      "type": "event"
    },
    {
      "anonymous": false,
      "inputs": [
        {
          "indexed": true,
          "internalType": "address",
          "name": "owner",
          "type": "address"
        },
        {
          "indexed": true,
          "internalType": "address",
          "name": "operator",
          "type": "address"
        },
        {
          "indexed": false,
          "internalType": "bool",
          "name": "approved",
          "type": "bool"
        }
      ],
      "name": "ApprovalForAll",
      "type": "event"
    },
    {
      "anonymous": false,
      "inputs": [
        {
          "indexed": true,
          "internalType": "address",
          "name": "previousOwner",
          "type": "address"
        },
        {
          "indexed": true,
          "internalType": "address",
          "name": "newOwner",
          "type": "address"
        }
      ],
      "name": "OwnershipTransferred",
      "type": "event"
    },
    {
      "anonymous": false,
      "inputs": [
        {
          "indexed": true,
          "internalType": "address",
          "name": "from",
          "type": "address"
        },
        {
          "indexed": true,
          "internalType": "address",
          "name": "to",
          "type": "address"
        },
        {
          "indexed": true,
          "internalType": "uint256",
          "name": "tokenId",
          "type": "uint256"
        }
      ],
      "name": "Transfer",
      "type": "event"
    },
    {
      "inputs": [
        {
          "internalType": "address",
          "name": "",
          "type": "address"
        }
      ],
      "name": "addressMintedBalance",
      "outputs": [
        {
          "internalType": "uint256",
          "name": "",
          "type": "uint256"
        }
      ],
      "stateMutability": "view",
      "type": "function"
    },
    {
      "inputs": [
        {
          "internalType": "address",
          "name": "to",
          "type": "address"
        },
        {
          "internalType": "uint256",
          "name": "tokenId",
          "type": "uint256"
        }
      ],
      "name": "approve",
      "outputs": [],
      "stateMutability": "nonpayable",
      "type": "function"
    },
    {
      "inputs": [
        {
          "internalType": "address",
          "name": "owner",
          "type": "address"
        }
      ],
      "name": "balanceOf",
      "outputs": [
        {
          "internalType": "uint256",
          "name": "",
          "type": "uint256"
        }
      ],
      "stateMutability": "view",
      "type": "function"
    },
    {
      "inputs": [],
      "name": "baseExtension",
      "outputs": [
        {
          "internalType": "string",
          "name": "",
          "type": "string"
        }
      ],
      "stateMutability": "view",
      "type": "function"
    },
    {
      "inputs": [],
      "name": "baseURI",
      "outputs": [
        {
          "internalType": "string",
          "name": "",
          "type": "string"
        }
      ],
      "stateMutability": "view",
      "type": "function"
    },
    {
      "inputs": [],
      "name": "cost",
      "outputs": [
        {
          "internalType": "uint256",
          "name": "",
          "type": "uint256"
        }
      ],
      "stateMutability": "view",
      "type": "function"
    },
    {
      "inputs": [
        {
          "internalType": "uint256",
          "name": "tokenId",
          "type": "uint256"
        }
      ],
      "name": "getApproved",
      "outputs": [
        {
          "internalType": "address",
          "name": "",
          "type": "address"
        }
      ],
      "stateMutability": "view",
      "type": "function"
    },
    {
      "inputs": [
        {
          "internalType": "address",
          "name": "owner",
          "type": "address"
        },
        {
          "internalType": "address",
          "name": "operator",
          "type": "address"
        }
      ],
      "name": "isApprovedForAll",
      "outputs": [
        {
          "internalType": "bool",
          "name": "",
          "type": "bool"
        }
      ],
      "stateMutability": "view",
      "type": "function"
    },
    {
      "inputs": [
        {
          "internalType": "address",
          "name": "_user",
          "type": "address"
        }
      ],
      "name": "isWhitelisted",
      "outputs": [
        {
          "internalType": "bool",
          "name": "",
          "type": "bool"
        }
      ],
      "stateMutability": "view",
      "type": "function"
    },
    {
      "inputs": [],
      "name": "maxMintAmount",
      "outputs": [
        {
          "internalType": "uint256",
          "name": "",
          "type": "uint256"
        }
      ],
      "stateMutability": "view",
      "type": "function"
    },
    {
      "inputs": [],
      "name": "maxSupply",
      "outputs": [
        {
          "internalType": "uint256",
          "name": "",
          "type": "uint256"
        }
      ],
      "stateMutability": "view",
      "type": "function"
    },
    {
      "inputs": [
        {
          "internalType": "uint256",
          "name": "_mintAmount",
          "type": "uint256"
        }
      ],
      "name": "mint",
      "outputs": [],
      "stateMutability": "payable",
      "type": "function"
    },
    {
      "inputs": [],
      "name": "name",
      "outputs": [
        {
          "internalType": "string",
          "name": "",
          "type": "string"
        }
      ],
      "stateMutability": "view",
      "type": "function"
    },
    {
      "inputs": [],
      "name": "nftPerAddressLimit",
      "outputs": [
        {
          "internalType": "uint256",
          "name": "",
          "type": "uint256"
        }
      ],
      "stateMutability": "view",
      "type": "function"
    },
    {
      "inputs": [],
      "name": "notRevealedUri",
      "outputs": [
        {
          "internalType": "string",
          "name": "",
          "type": "string"
        }
      ],
      "stateMutability": "view",
      "type": "function"
    },
    {
      "inputs": [],
      "name": "onlyWhitelisted",
      "outputs": [
        {
          "internalType": "bool",
          "name": "",
          "type": "bool"
        }
      ],
      "stateMutability": "view",
      "type": "function"
    },
    {
      "inputs": [],
      "name": "owner",
      "outputs": [
        {
          "internalType": "address",
          "name": "",
          "type": "address"
        }
      ],
      "stateMutability": "view",
      "type": "function"
    },
    {
      "inputs": [
        {
          "internalType": "uint256",
          "name": "tokenId",
          "type": "uint256"
        }
      ],
      "name": "ownerOf",
      "outputs": [
        {
          "internalType": "address",
          "name": "",
          "type": "address"
        }
      ],
      "stateMutability": "view",
      "type": "function"
    },
    {
      "inputs": [
        {
          "internalType": "bool",
          "name": "_state",
          "type": "bool"
        }
      ],
      "name": "pause",
      "outputs": [],
      "stateMutability": "nonpayable",
      "type": "function"
    },
    {
      "inputs": [],
      "name": "paused",
      "outputs": [
        {
          "internalType": "bool",
          "name": "",
          "type": "bool"
        }
      ],
      "stateMutability": "view",
      "type": "function"
    },
    {
      "inputs": [],
      "name": "renounceOwnership",
      "outputs": [],
      "stateMutability": "nonpayable",
      "type": "function"
    },
    {
      "inputs": [],
      "name": "reveal",
      "outputs": [],
      "stateMutability": "nonpayable",
      "type": "function"
    },
    {
      "inputs": [],
      "name": "revealed",
      "outputs": [
        {
          "internalType": "bool",
          "name": "",
          "type": "bool"
        }
      ],
      "stateMutability": "view",
      "type": "function"
    },
    {
      "inputs": [
        {
          "internalType": "address",
          "name": "from",
          "type": "address"
        },
        {
          "internalType": "address",
          "name": "to",
          "type": "address"
        },
        {
          "internalType": "uint256",
          "name": "tokenId",
          "type": "uint256"
        }
      ],
      "name": "safeTransferFrom",
      "outputs": [],
      "stateMutability": "nonpayable",
      "type": "function"
    },
    {
      "inputs": [
        {
          "internalType": "address",
          "name": "from",
          "type": "address"
        },
        {
          "internalType": "address",
          "name": "to",
          "type": "address"
        },
        {
          "internalType": "uint256",
          "name": "tokenId",
          "type": "uint256"
        },
        {
          "internalType": "bytes",
          "name": "_data",
          "type": "bytes"
        }
      ],
      "name": "safeTransferFrom",
      "outputs": [],
      "stateMutability": "nonpayable",
      "type": "function"
    },
    {
      "inputs": [
        {
          "internalType": "address",
          "name": "operator",
          "type": "address"
        },
        {
          "internalType": "bool",
          "name": "approved",
          "type": "bool"
        }
      ],
      "name": "setApprovalForAll",
      "outputs": [],
      "stateMutability": "nonpayable",
      "type": "function"
    },
    {
      "inputs": [
        {
          "internalType": "string",
          "name": "_newBaseExtension",
          "type": "string"
        }
      ],
      "name": "setBaseExtension",
      "outputs": [],
      "stateMutability": "nonpayable",
      "type": "function"
    },
    {
      "inputs": [
        {
          "internalType": "string",
          "name": "_newBaseURI",
          "type": "string"
        }
      ],
      "name": "setBaseURI",
      "outputs": [],
      "stateMutability": "nonpayable",
      "type": "function"
    },
    {
      "inputs": [
        {
          "internalType": "uint256",
          "name": "_newCost",
          "type": "uint256"
        }
      ],
      "name": "setCost",
      "outputs": [],
      "stateMutability": "nonpayable",
      "type": "function"
    },
    {
      "inputs": [
        {
          "internalType": "uint256",
          "name": "_limit",
          "type": "uint256"
        }
      ],
      "name": "setNftPerAddressLimit",
      "outputs": [],
      "stateMutability": "nonpayable",
      "type": "function"
    },
    {
      "inputs": [
        {
          "internalType": "string",
          "name": "_notRevealedURI",
          "type": "string"
        }
      ],
      "name": "setNotRevealedURI",
      "outputs": [],
      "stateMutability": "nonpayable",
      "type": "function"
    },
    {
      "inputs": [
        {
          "internalType": "bool",
          "name": "_state",
          "type": "bool"
        }
      ],
      "name": "setOnlyWhitelisted",
      "outputs": [],
      "stateMutability": "nonpayable",
      "type": "function"
    },
    {
      "inputs": [
        {
          "internalType": "uint256",
          "name": "_newmaxMintAmount",
          "type": "uint256"
        }
      ],
      "name": "setmaxMintAmount",
      "outputs": [],
      "stateMutability": "nonpayable",
      "type": "function"
    },
    {
      "inputs": [
        {
          "internalType": "bytes4",
          "name": "interfaceId",
          "type": "bytes4"
        }
      ],
      "name": "supportsInterface",
      "outputs": [
        {
          "internalType": "bool",
          "name": "",
          "type": "bool"
        }
      ],
      "stateMutability": "view",
      "type": "function"
    },
    {
      "inputs": [],
      "name": "symbol",
      "outputs": [
        {
          "internalType": "string",
          "name": "",
          "type": "string"
        }
      ],
      "stateMutability": "view",
      "type": "function"
    },
    {
      "inputs": [
        {
          "internalType": "uint256",
          "name": "index",
          "type": "uint256"
        }
      ],
      "name": "tokenByIndex",
      "outputs": [
        {
          "internalType": "uint256",
          "name": "",
          "type": "uint256"
        }
      ],
      "stateMutability": "view",
      "type": "function"
    },
    {
      "inputs": [
        {
          "internalType": "address",
          "name": "owner",
          "type": "address"
        },
        {
          "internalType": "uint256",
          "name": "index",
          "type": "uint256"
        }
      ],
      "name": "tokenOfOwnerByIndex",
      "outputs": [
        {
          "internalType": "uint256",
          "name": "",
          "type": "uint256"
        }
      ],
      "stateMutability": "view",
      "type": "function"
    },
    {
      "inputs": [
        {
          "internalType": "uint256",
          "name": "tokenId",
          "type": "uint256"
        }
      ],
      "name": "tokenURI",
      "outputs": [
        {
          "internalType": "string",
          "name": "",
          "type": "string"
        }
      ],
      "stateMutability": "view",
      "type": "function"
    },
    {
      "inputs": [],
      "name": "totalSupply",
      "outputs": [
        {
          "internalType": "uint256",
          "name": "",
          "type": "uint256"
        }
      ],
      "stateMutability": "view",
      "type": "function"
    },
    {
      "inputs": [
        {
          "internalType": "address",
          "name": "from",
          "type": "address"
        },
        {
          "internalType": "address",
          "name": "to",
          "type": "address"
        },
        {
          "internalType": "uint256",
          "name": "tokenId",
          "type": "uint256"
        }
      ],
      "name": "transferFrom",
      "outputs": [],
      "stateMutability": "nonpayable",
      "type": "function"
    },
    {
      "inputs": [
        {
          "internalType": "address",
          "name": "newOwner",
          "type": "address"
        }
      ],
      "name": "transferOwnership",
      "outputs": [],
      "stateMutability": "nonpayable",
      "type": "function"
    },
    {
      "inputs": [
        {
          "internalType": "address",
          "name": "_owner",
          "type": "address"
        }
      ],
      "name": "walletOfOwner",
      "outputs": [
        {
          "internalType": "uint256[]",
          "name": "",
          "type": "uint256[]"
        }
      ],
      "stateMutability": "view",
      "type": "function"
    },
    {
      "inputs": [
        {
          "internalType": "address[]",
          "name": "_users",
          "type": "address[]"
        }
      ],
      "name": "whitelistUsers",
      "outputs": [],
      "stateMutability": "nonpayable",
      "type": "function"
    },
    {
      "inputs": [
        {
          "internalType": "uint256",
          "name": "",
          "type": "uint256"
        }
      ],
      "name": "whitelistedAddresses",
      "outputs": [
        {
          "internalType": "address",
          "name": "",
          "type": "address"
        }
      ],
      "stateMutability": "view",
      "type": "function"
    },
    {
      "inputs": [],
      "name": "withdraw",
      "outputs": [],
      "stateMutability": "payable",
      "type": "function"
    }
  ],
  "bytecode": "0x60806040526040518060400160405280600581526020017f2e6a736f6e000000000000000000000000000000000000000000000000000000815250600c908051906020019062000051929190620003bb565b506000600e55612710600f55601460105560036011556000601260006101000a81548160ff0219169083151502179055506000601260016101000a81548160ff0219169083151502179055506001601260026101000a81548160ff021916908315150217905550348015620000c557600080fd5b5060405162005911380380620059118339818101604052810190620000eb9190620004e9565b8383816000908051906020019062000105929190620003bb565b5080600190805190602001906200011e929190620003bb565b50505062000141620001356200016d60201b60201c565b6200017560201b60201c565b62000152826200023b60201b60201c565b6200016381620002e660201b60201c565b50505050620007de565b600033905090565b6000600a60009054906101000a900473ffffffffffffffffffffffffffffffffffffffff16905081600a60006101000a81548173ffffffffffffffffffffffffffffffffffffffff021916908373ffffffffffffffffffffffffffffffffffffffff1602179055508173ffffffffffffffffffffffffffffffffffffffff168173ffffffffffffffffffffffffffffffffffffffff167f8be0079c531659141344cd1fd0a4f28419497f9722a3daafe3b4186f6b6457e060405160405180910390a35050565b6200024b6200016d60201b60201c565b73ffffffffffffffffffffffffffffffffffffffff16620002716200039160201b60201c565b73ffffffffffffffffffffffffffffffffffffffff1614620002ca576040517f08c379a0000000000000000000000000000000000000000000000000000000008152600401620002c190620005fe565b60405180910390fd5b80600b9080519060200190620002e2929190620003bb565b5050565b620002f66200016d60201b60201c565b73ffffffffffffffffffffffffffffffffffffffff166200031c6200039160201b60201c565b73ffffffffffffffffffffffffffffffffffffffff161462000375576040517f08c379a00000000000000000000000000000000000000000000000000000000081526004016200036c90620005fe565b60405180910390fd5b80600d90805190602001906200038d929190620003bb565b5050565b6000600a60009054906101000a900473ffffffffffffffffffffffffffffffffffffffff16905090565b828054620003c990620006c6565b90600052602060002090601f016020900481019282620003ed576000855562000439565b82601f106200040857805160ff191683800117855562000439565b8280016001018555821562000439579182015b82811115620004385782518255916020019190600101906200041b565b5b5090506200044891906200044c565b5090565b5b80821115620004675760008160009055506001016200044d565b5090565b6000620004826200047c8462000649565b62000620565b905082815260208101848484011115620004a157620004a062000795565b5b620004ae84828562000690565b509392505050565b600082601f830112620004ce57620004cd62000790565b5b8151620004e08482602086016200046b565b91505092915050565b600080600080608085870312156200050657620005056200079f565b5b600085015167ffffffffffffffff8111156200052757620005266200079a565b5b6200053587828801620004b6565b945050602085015167ffffffffffffffff8111156200055957620005586200079a565b5b6200056787828801620004b6565b935050604085015167ffffffffffffffff8111156200058b576200058a6200079a565b5b6200059987828801620004b6565b925050606085015167ffffffffffffffff811115620005bd57620005bc6200079a565b5b620005cb87828801620004b6565b91505092959194509250565b6000620005e66020836200067f565b9150620005f382620007b5565b602082019050919050565b600060208201905081810360008301526200061981620005d7565b9050919050565b60006200062c6200063f565b90506200063a8282620006fc565b919050565b6000604051905090565b600067ffffffffffffffff82111562000667576200066662000761565b5b6200067282620007a4565b9050602081019050919050565b600082825260208201905092915050565b60005b83811015620006b057808201518184015260208101905062000693565b83811115620006c0576000848401525b50505050565b60006002820490506001821680620006df57607f821691505b60208210811415620006f657620006f562000732565b5b50919050565b6200070782620007a4565b810181811067ffffffffffffffff8211171562000729576200072862000761565b5b80604052505050565b7f4e487b7100000000000000000000000000000000000000000000000000000000600052602260045260246000fd5b7f4e487b7100000000000000000000000000000000000000000000000000000000600052604160045260246000fd5b600080fd5b600080fd5b600080fd5b600080fd5b6000601f19601f8301169050919050565b7f4f776e61626c653a2063616c6c6572206973206e6f7420746865206f776e6572600082015250565b61512380620007ee6000396000f3fe6080604052600436106102725760003560e01c80636352211e1161014f578063b88d4fde116100c1578063d5abeb011161007a578063d5abeb011461095c578063da3ef23f14610987578063e985e9c5146109b0578063edec5f27146109ed578063f2c4ce1e14610a16578063f2fde38b14610a3f57610272565b8063b88d4fde1461083a578063ba4e5c4914610863578063ba7d2c76146108a0578063c6682862146108cb578063c87b56dd146108f6578063d0eb26b01461093357610272565b80638da5cb5b116101135780638da5cb5b1461075d57806395d89b41146107885780639c70b512146107b3578063a0712d68146107de578063a22cb465146107fa578063a475b5dd1461082357610272565b80636352211e146106785780636c0360eb146106b557806370a08231146106e0578063715018a61461071d5780637f00c7a61461073457610272565b80632f745c59116101e8578063438b6300116101ac578063438b63001461055657806344a0d68a146105935780634f6ccce7146105bc57806351830227146105f957806355f804b3146106245780635c975abb1461064d57610272565b80632f745c59146104805780633af32abf146104bd5780633c952764146104fa5780633ccfd60b1461052357806342842e0e1461052d57610272565b8063095ea7b31161023a578063095ea7b31461037057806313faede61461039957806318160ddd146103c457806318cae269146103ef578063239c70ae1461042c57806323b872dd1461045757610272565b806301ffc9a71461027757806302329a29146102b457806306fdde03146102dd578063081812fc14610308578063081c8c4414610345575b600080fd5b34801561028357600080fd5b5061029e60048036038101906102999190613ac6565b610a68565b6040516102ab91906141c7565b60405180910390f35b3480156102c057600080fd5b506102db60048036038101906102d69190613a99565b610ae2565b005b3480156102e957600080fd5b506102f2610b7b565b6040516102ff91906141e2565b60405180910390f35b34801561031457600080fd5b5061032f600480360381019061032a9190613b69565b610c0d565b60405161033c919061413e565b60405180910390f35b34801561035157600080fd5b5061035a610c92565b60405161036791906141e2565b60405180910390f35b34801561037c57600080fd5b5061039760048036038101906103929190613a0c565b610d20565b005b3480156103a557600080fd5b506103ae610e38565b6040516103bb9190614524565b60405180910390f35b3480156103d057600080fd5b506103d9610e3e565b6040516103e69190614524565b60405180910390f35b3480156103fb57600080fd5b5061041660048036038101906104119190613889565b610e4b565b6040516104239190614524565b60405180910390f35b34801561043857600080fd5b50610441610e63565b60405161044e9190614524565b60405180910390f35b34801561046357600080fd5b5061047e600480360381019061047991906138f6565b610e69565b005b34801561048c57600080fd5b506104a760048036038101906104a29190613a0c565b610ec9565b6040516104b49190614524565b60405180910390f35b3480156104c957600080fd5b506104e460048036038101906104df9190613889565b610f6e565b6040516104f191906141c7565b60405180910390f35b34801561050657600080fd5b50610521600480360381019061051c9190613a99565b61101d565b005b61052b6110b6565b005b34801561053957600080fd5b50610554600480360381019061054f91906138f6565b611255565b005b34801561056257600080fd5b5061057d60048036038101906105789190613889565b611275565b60405161058a91906141a5565b60405180910390f35b34801561059f57600080fd5b506105ba60048036038101906105b59190613b69565b611323565b005b3480156105c857600080fd5b506105e360048036038101906105de9190613b69565b6113a9565b6040516105f09190614524565b60405180910390f35b34801561060557600080fd5b5061060e61141a565b60405161061b91906141c7565b60405180910390f35b34801561063057600080fd5b5061064b60048036038101906106469190613b20565b61142d565b005b34801561065957600080fd5b506106626114c3565b60405161066f91906141c7565b60405180910390f35b34801561068457600080fd5b5061069f600480360381019061069a9190613b69565b6114d6565b6040516106ac919061413e565b60405180910390f35b3480156106c157600080fd5b506106ca611588565b6040516106d791906141e2565b60405180910390f35b3480156106ec57600080fd5b5061070760048036038101906107029190613889565b611616565b6040516107149190614524565b60405180910390f35b34801561072957600080fd5b506107326116ce565b005b34801561074057600080fd5b5061075b60048036038101906107569190613b69565b611756565b005b34801561076957600080fd5b506107726117dc565b60405161077f919061413e565b60405180910390f35b34801561079457600080fd5b5061079d611806565b6040516107aa91906141e2565b60405180910390f35b3480156107bf57600080fd5b506107c8611898565b6040516107d591906141c7565b60405180910390f35b6107f860048036038101906107f39190613b69565b6118ab565b005b34801561080657600080fd5b50610821600480360381019061081c91906139cc565b611bf4565b005b34801561082f57600080fd5b50610838611c0a565b005b34801561084657600080fd5b50610861600480360381019061085c9190613949565b611ca3565b005b34801561086f57600080fd5b5061088a60048036038101906108859190613b69565b611d05565b604051610897919061413e565b60405180910390f35b3480156108ac57600080fd5b506108b5611d44565b6040516108c29190614524565b60405180910390f35b3480156108d757600080fd5b506108e0611d4a565b6040516108ed91906141e2565b60405180910390f35b34801561090257600080fd5b5061091d60048036038101906109189190613b69565b611dd8565b60405161092a91906141e2565b60405180910390f35b34801561093f57600080fd5b5061095a60048036038101906109559190613b69565b611f31565b005b34801561096857600080fd5b50610971611fb7565b60405161097e9190614524565b60405180910390f35b34801561099357600080fd5b506109ae60048036038101906109a99190613b20565b611fbd565b005b3480156109bc57600080fd5b506109d760048036038101906109d291906138b6565b612053565b6040516109e491906141c7565b60405180910390f35b3480156109f957600080fd5b50610a146004803603810190610a0f9190613a4c565b6120e7565b005b348015610a2257600080fd5b50610a3d6004803603810190610a389190613b20565b612187565b005b348015610a4b57600080fd5b50610a666004803603810190610a619190613889565b61221d565b005b60007f780e9d63000000000000000000000000000000000000000000000000000000007bffffffffffffffffffffffffffffffffffffffffffffffffffffffff1916827bffffffffffffffffffffffffffffffffffffffffffffffffffffffff19161480610adb5750610ada82612315565b5b9050919050565b610aea6123f7565b73ffffffffffffffffffffffffffffffffffffffff16610b086117dc565b73ffffffffffffffffffffffffffffffffffffffff1614610b5e576040517f08c379a0000000000000000000000000000000000000000000000000000000008152600401610b5590614404565b60405180910390fd5b80601260006101000a81548160ff02191690831515021790555050565b606060008054610b8a9061482d565b80601f0160208091040260200160405190810160405280929190818152602001828054610bb69061482d565b8015610c035780601f10610bd857610100808354040283529160200191610c03565b820191906000526020600020905b815481529060010190602001808311610be657829003601f168201915b5050505050905090565b6000610c18826123ff565b610c57576040517f08c379a0000000000000000000000000000000000000000000000000000000008152600401610c4e906143e4565b60405180910390fd5b6004600083815260200190815260200160002060009054906101000a900473ffffffffffffffffffffffffffffffffffffffff169050919050565b600d8054610c9f9061482d565b80601f0160208091040260200160405190810160405280929190818152602001828054610ccb9061482d565b8015610d185780601f10610ced57610100808354040283529160200191610d18565b820191906000526020600020905b815481529060010190602001808311610cfb57829003601f168201915b505050505081565b6000610d2b826114d6565b90508073ffffffffffffffffffffffffffffffffffffffff168373ffffffffffffffffffffffffffffffffffffffff161415610d9c576040517f08c379a0000000000000000000000000000000000000000000000000000000008152600401610d9390614464565b60405180910390fd5b8073ffffffffffffffffffffffffffffffffffffffff16610dbb6123f7565b73ffffffffffffffffffffffffffffffffffffffff161480610dea5750610de981610de46123f7565b612053565b5b610e29576040517f08c379a0000000000000000000000000000000000000000000000000000000008152600401610e2090614324565b60405180910390fd5b610e33838361246b565b505050565b600e5481565b6000600880549050905090565b60146020528060005260406000206000915090505481565b60105481565b610e7a610e746123f7565b82612524565b610eb9576040517f08c379a0000000000000000000000000000000000000000000000000000000008152600401610eb0906144a4565b60405180910390fd5b610ec4838383612602565b505050565b6000610ed483611616565b8210610f15576040517f08c379a0000000000000000000000000000000000000000000000000000000008152600401610f0c90614204565b60405180910390fd5b600660008473ffffffffffffffffffffffffffffffffffffffff1673ffffffffffffffffffffffffffffffffffffffff168152602001908152602001600020600083815260200190815260200160002054905092915050565b600080600090505b601380549050811015611012578273ffffffffffffffffffffffffffffffffffffffff1660138281548110610fae57610fad6149c6565b5b9060005260206000200160009054906101000a900473ffffffffffffffffffffffffffffffffffffffff1673ffffffffffffffffffffffffffffffffffffffff161415610fff576001915050611018565b808061100a90614890565b915050610f76565b50600090505b919050565b6110256123f7565b73ffffffffffffffffffffffffffffffffffffffff166110436117dc565b73ffffffffffffffffffffffffffffffffffffffff1614611099576040517f08c379a000000000000000000000000000000000000000000000000000000000815260040161109090614404565b60405180910390fd5b80601260026101000a81548160ff02191690831515021790555050565b6110be6123f7565b73ffffffffffffffffffffffffffffffffffffffff166110dc6117dc565b73ffffffffffffffffffffffffffffffffffffffff1614611132576040517f08c379a000000000000000000000000000000000000000000000000000000000815260040161112990614404565b60405180910390fd5b600073943590a42c27d08e3744202c4ae5ed55c2de240d73ffffffffffffffffffffffffffffffffffffffff16606460054761116e91906146e9565b61117891906146b8565b60405161118490614129565b60006040518083038185875af1925050503d80600081146111c1576040519150601f19603f3d011682016040523d82523d6000602084013e6111c6565b606091505b50509050806111d457600080fd5b60006111de6117dc565b73ffffffffffffffffffffffffffffffffffffffff164760405161120190614129565b60006040518083038185875af1925050503d806000811461123e576040519150601f19603f3d011682016040523d82523d6000602084013e611243565b606091505b505090508061125157600080fd5b5050565b61127083838360405180602001604052806000815250611ca3565b505050565b6060600061128283611616565b905060008167ffffffffffffffff8111156112a05761129f6149f5565b5b6040519080825280602002602001820160405280156112ce5781602001602082028036833780820191505090505b50905060005b82811015611318576112e68582610ec9565b8282815181106112f9576112f86149c6565b5b602002602001018181525050808061131090614890565b9150506112d4565b508092505050919050565b61132b6123f7565b73ffffffffffffffffffffffffffffffffffffffff166113496117dc565b73ffffffffffffffffffffffffffffffffffffffff161461139f576040517f08c379a000000000000000000000000000000000000000000000000000000000815260040161139690614404565b60405180910390fd5b80600e8190555050565b60006113b3610e3e565b82106113f4576040517f08c379a00000000000000000000000000000000000000000000000000000000081526004016113eb906144c4565b60405180910390fd5b60088281548110611408576114076149c6565b5b90600052602060002001549050919050565b601260019054906101000a900460ff1681565b6114356123f7565b73ffffffffffffffffffffffffffffffffffffffff166114536117dc565b73ffffffffffffffffffffffffffffffffffffffff16146114a9576040517f08c379a00000000000000000000000000000000000000000000000000000000081526004016114a090614404565b60405180910390fd5b80600b90805190602001906114bf929190613586565b5050565b601260009054906101000a900460ff1681565b6000806002600084815260200190815260200160002060009054906101000a900473ffffffffffffffffffffffffffffffffffffffff169050600073ffffffffffffffffffffffffffffffffffffffff168173ffffffffffffffffffffffffffffffffffffffff16141561157f576040517f08c379a000000000000000000000000000000000000000000000000000000000815260040161157690614364565b60405180910390fd5b80915050919050565b600b80546115959061482d565b80601f01602080910402602001604051908101604052809291908181526020018280546115c19061482d565b801561160e5780601f106115e35761010080835404028352916020019161160e565b820191906000526020600020905b8154815290600101906020018083116115f157829003601f168201915b505050505081565b60008073ffffffffffffffffffffffffffffffffffffffff168273ffffffffffffffffffffffffffffffffffffffff161415611687576040517f08c379a000000000000000000000000000000000000000000000000000000000815260040161167e90614344565b60405180910390fd5b600360008373ffffffffffffffffffffffffffffffffffffffff1673ffffffffffffffffffffffffffffffffffffffff168152602001908152602001600020549050919050565b6116d66123f7565b73ffffffffffffffffffffffffffffffffffffffff166116f46117dc565b73ffffffffffffffffffffffffffffffffffffffff161461174a576040517f08c379a000000000000000000000000000000000000000000000000000000000815260040161174190614404565b60405180910390fd5b6117546000612869565b565b61175e6123f7565b73ffffffffffffffffffffffffffffffffffffffff1661177c6117dc565b73ffffffffffffffffffffffffffffffffffffffff16146117d2576040517f08c379a00000000000000000000000000000000000000000000000000000000081526004016117c990614404565b60405180910390fd5b8060108190555050565b6000600a60009054906101000a900473ffffffffffffffffffffffffffffffffffffffff16905090565b6060600180546118159061482d565b80601f01602080910402602001604051908101604052809291908181526020018280546118419061482d565b801561188e5780601f106118635761010080835404028352916020019161188e565b820191906000526020600020905b81548152906001019060200180831161187157829003601f168201915b5050505050905090565b601260029054906101000a900460ff1681565b601260009054906101000a900460ff16156118fb576040517f08c379a00000000000000000000000000000000000000000000000000000000081526004016118f290614424565b60405180910390fd5b6000611905610e3e565b90506000821161194a576040517f08c379a000000000000000000000000000000000000000000000000000000000815260040161194190614504565b60405180910390fd5b60105482111561198f576040517f08c379a0000000000000000000000000000000000000000000000000000000008152600401611986906143a4565b60405180910390fd5b600f54828261199e9190614662565b11156119df576040517f08c379a00000000000000000000000000000000000000000000000000000000081526004016119d690614384565b60405180910390fd5b6119e76117dc565b73ffffffffffffffffffffffffffffffffffffffff163373ffffffffffffffffffffffffffffffffffffffff1614611b645760011515601260029054906101000a900460ff1615151415611b1357611a3e33610f6e565b611a7d576040517f08c379a0000000000000000000000000000000000000000000000000000000008152600401611a74906144e4565b60405180910390fd5b6000601460003373ffffffffffffffffffffffffffffffffffffffff1673ffffffffffffffffffffffffffffffffffffffff1681526020019081526020016000205490506011548382611ad09190614662565b1115611b11576040517f08c379a0000000000000000000000000000000000000000000000000000000008152600401611b08906142a4565b60405180910390fd5b505b81600e54611b2191906146e9565b341015611b63576040517f08c379a0000000000000000000000000000000000000000000000000000000008152600401611b5a90614484565b60405180910390fd5b5b6000600190505b828111611bef57601460003373ffffffffffffffffffffffffffffffffffffffff1673ffffffffffffffffffffffffffffffffffffffff1681526020019081526020016000206000815480929190611bc290614890565b9190505550611bdc338284611bd79190614662565b61292f565b8080611be790614890565b915050611b6b565b505050565b611c06611bff6123f7565b838361294d565b5050565b611c126123f7565b73ffffffffffffffffffffffffffffffffffffffff16611c306117dc565b73ffffffffffffffffffffffffffffffffffffffff1614611c86576040517f08c379a0000000000000000000000000000000000000000000000000000000008152600401611c7d90614404565b60405180910390fd5b6001601260016101000a81548160ff021916908315150217905550565b611cb4611cae6123f7565b83612524565b611cf3576040517f08c379a0000000000000000000000000000000000000000000000000000000008152600401611cea906144a4565b60405180910390fd5b611cff84848484612aba565b50505050565b60138181548110611d1557600080fd5b906000526020600020016000915054906101000a900473ffffffffffffffffffffffffffffffffffffffff1681565b60115481565b600c8054611d579061482d565b80601f0160208091040260200160405190810160405280929190818152602001828054611d839061482d565b8015611dd05780601f10611da557610100808354040283529160200191611dd0565b820191906000526020600020905b815481529060010190602001808311611db357829003601f168201915b505050505081565b6060611de3826123ff565b611e22576040517f08c379a0000000000000000000000000000000000000000000000000000000008152600401611e1990614444565b60405180910390fd5b60001515601260019054906101000a900460ff1615151415611ed057600d8054611e4b9061482d565b80601f0160208091040260200160405190810160405280929190818152602001828054611e779061482d565b8015611ec45780601f10611e9957610100808354040283529160200191611ec4565b820191906000526020600020905b815481529060010190602001808311611ea757829003601f168201915b50505050509050611f2c565b6000611eda612b16565b90506000815111611efa5760405180602001604052806000815250611f28565b80611f0484612ba8565b600c604051602001611f18939291906140f8565b6040516020818303038152906040525b9150505b919050565b611f396123f7565b73ffffffffffffffffffffffffffffffffffffffff16611f576117dc565b73ffffffffffffffffffffffffffffffffffffffff1614611fad576040517f08c379a0000000000000000000000000000000000000000000000000000000008152600401611fa490614404565b60405180910390fd5b8060118190555050565b600f5481565b611fc56123f7565b73ffffffffffffffffffffffffffffffffffffffff16611fe36117dc565b73ffffffffffffffffffffffffffffffffffffffff1614612039576040517f08c379a000000000000000000000000000000000000000000000000000000000815260040161203090614404565b60405180910390fd5b80600c908051906020019061204f929190613586565b5050565b6000600560008473ffffffffffffffffffffffffffffffffffffffff1673ffffffffffffffffffffffffffffffffffffffff16815260200190815260200160002060008373ffffffffffffffffffffffffffffffffffffffff1673ffffffffffffffffffffffffffffffffffffffff16815260200190815260200160002060009054906101000a900460ff16905092915050565b6120ef6123f7565b73ffffffffffffffffffffffffffffffffffffffff1661210d6117dc565b73ffffffffffffffffffffffffffffffffffffffff1614612163576040517f08c379a000000000000000000000000000000000000000000000000000000000815260040161215a90614404565b60405180910390fd5b60136000612171919061360c565b81816013919061218292919061362d565b505050565b61218f6123f7565b73ffffffffffffffffffffffffffffffffffffffff166121ad6117dc565b73ffffffffffffffffffffffffffffffffffffffff1614612203576040517f08c379a00000000000000000000000000000000000000000000000000000000081526004016121fa90614404565b60405180910390fd5b80600d9080519060200190612219929190613586565b5050565b6122256123f7565b73ffffffffffffffffffffffffffffffffffffffff166122436117dc565b73ffffffffffffffffffffffffffffffffffffffff1614612299576040517f08c379a000000000000000000000000000000000000000000000000000000000815260040161229090614404565b60405180910390fd5b600073ffffffffffffffffffffffffffffffffffffffff168173ffffffffffffffffffffffffffffffffffffffff161415612309576040517f08c379a000000000000000000000000000000000000000000000000000000000815260040161230090614244565b60405180910390fd5b61231281612869565b50565b60007f80ac58cd000000000000000000000000000000000000000000000000000000007bffffffffffffffffffffffffffffffffffffffffffffffffffffffff1916827bffffffffffffffffffffffffffffffffffffffffffffffffffffffff191614806123e057507f5b5e139f000000000000000000000000000000000000000000000000000000007bffffffffffffffffffffffffffffffffffffffffffffffffffffffff1916827bffffffffffffffffffffffffffffffffffffffffffffffffffffffff1916145b806123f057506123ef82612d09565b5b9050919050565b600033905090565b60008073ffffffffffffffffffffffffffffffffffffffff166002600084815260200190815260200160002060009054906101000a900473ffffffffffffffffffffffffffffffffffffffff1673ffffffffffffffffffffffffffffffffffffffff1614159050919050565b816004600083815260200190815260200160002060006101000a81548173ffffffffffffffffffffffffffffffffffffffff021916908373ffffffffffffffffffffffffffffffffffffffff160217905550808273ffffffffffffffffffffffffffffffffffffffff166124de836114d6565b73ffffffffffffffffffffffffffffffffffffffff167f8c5be1e5ebec7d5bd14f71427d1e84f3dd0314c0f7b2291e5b200ac8c7c3b92560405160405180910390a45050565b600061252f826123ff565b61256e576040517f08c379a000000000000000000000000000000000000000000000000000000000815260040161256590614304565b60405180910390fd5b6000612579836114d6565b90508073ffffffffffffffffffffffffffffffffffffffff168473ffffffffffffffffffffffffffffffffffffffff1614806125e857508373ffffffffffffffffffffffffffffffffffffffff166125d084610c0d565b73ffffffffffffffffffffffffffffffffffffffff16145b806125f957506125f88185612053565b5b91505092915050565b8273ffffffffffffffffffffffffffffffffffffffff16612622826114d6565b73ffffffffffffffffffffffffffffffffffffffff1614612678576040517f08c379a000000000000000000000000000000000000000000000000000000000815260040161266f90614264565b60405180910390fd5b600073ffffffffffffffffffffffffffffffffffffffff168273ffffffffffffffffffffffffffffffffffffffff1614156126e8576040517f08c379a00000000000000000000000000000000000000000000000000000000081526004016126df906142c4565b60405180910390fd5b6126f3838383612d73565b6126fe60008261246b565b6001600360008573ffffffffffffffffffffffffffffffffffffffff1673ffffffffffffffffffffffffffffffffffffffff168152602001908152602001600020600082825461274e9190614743565b925050819055506001600360008473ffffffffffffffffffffffffffffffffffffffff1673ffffffffffffffffffffffffffffffffffffffff16815260200190815260200160002060008282546127a59190614662565b92505081905550816002600083815260200190815260200160002060006101000a81548173ffffffffffffffffffffffffffffffffffffffff021916908373ffffffffffffffffffffffffffffffffffffffff160217905550808273ffffffffffffffffffffffffffffffffffffffff168473ffffffffffffffffffffffffffffffffffffffff167fddf252ad1be2c89b69c2b068fc378daa952ba7f163c4a11628f55a4df523b3ef60405160405180910390a4612864838383612e87565b505050565b6000600a60009054906101000a900473ffffffffffffffffffffffffffffffffffffffff16905081600a60006101000a81548173ffffffffffffffffffffffffffffffffffffffff021916908373ffffffffffffffffffffffffffffffffffffffff1602179055508173ffffffffffffffffffffffffffffffffffffffff168173ffffffffffffffffffffffffffffffffffffffff167f8be0079c531659141344cd1fd0a4f28419497f9722a3daafe3b4186f6b6457e060405160405180910390a35050565b612949828260405180602001604052806000815250612e8c565b5050565b8173ffffffffffffffffffffffffffffffffffffffff168373ffffffffffffffffffffffffffffffffffffffff1614156129bc576040517f08c379a00000000000000000000000000000000000000000000000000000000081526004016129b3906142e4565b60405180910390fd5b80600560008573ffffffffffffffffffffffffffffffffffffffff1673ffffffffffffffffffffffffffffffffffffffff16815260200190815260200160002060008473ffffffffffffffffffffffffffffffffffffffff1673ffffffffffffffffffffffffffffffffffffffff16815260200190815260200160002060006101000a81548160ff0219169083151502179055508173ffffffffffffffffffffffffffffffffffffffff168373ffffffffffffffffffffffffffffffffffffffff167f17307eab39ab6107e8899845ad3d59bd9653f200f220920489ca2b5937696c3183604051612aad91906141c7565b60405180910390a3505050565b612ac5848484612602565b612ad184848484612ee7565b612b10576040517f08c379a0000000000000000000000000000000000000000000000000000000008152600401612b0790614224565b60405180910390fd5b50505050565b6060600b8054612b259061482d565b80601f0160208091040260200160405190810160405280929190818152602001828054612b519061482d565b8015612b9e5780601f10612b7357610100808354040283529160200191612b9e565b820191906000526020600020905b815481529060010190602001808311612b8157829003601f168201915b5050505050905090565b60606000821415612bf0576040518060400160405280600181526020017f30000000000000000000000000000000000000000000000000000000000000008152509050612d04565b600082905060005b60008214612c22578080612c0b90614890565b915050600a82612c1b91906146b8565b9150612bf8565b60008167ffffffffffffffff811115612c3e57612c3d6149f5565b5b6040519080825280601f01601f191660200182016040528015612c705781602001600182028036833780820191505090505b5090505b60008514612cfd57600182612c899190614743565b9150600a85612c9891906148d9565b6030612ca49190614662565b60f81b818381518110612cba57612cb96149c6565b5b60200101907effffffffffffffffffffffffffffffffffffffffffffffffffffffffffffff1916908160001a905350600a85612cf691906146b8565b9450612c74565b8093505050505b919050565b60007f01ffc9a7000000000000000000000000000000000000000000000000000000007bffffffffffffffffffffffffffffffffffffffffffffffffffffffff1916827bffffffffffffffffffffffffffffffffffffffffffffffffffffffff1916149050919050565b612d7e83838361307e565b600073ffffffffffffffffffffffffffffffffffffffff168373ffffffffffffffffffffffffffffffffffffffff161415612dc157612dbc81613083565b612e00565b8173ffffffffffffffffffffffffffffffffffffffff168373ffffffffffffffffffffffffffffffffffffffff1614612dff57612dfe83826130cc565b5b5b600073ffffffffffffffffffffffffffffffffffffffff168273ffffffffffffffffffffffffffffffffffffffff161415612e4357612e3e81613239565b612e82565b8273ffffffffffffffffffffffffffffffffffffffff168273ffffffffffffffffffffffffffffffffffffffff1614612e8157612e80828261330a565b5b5b505050565b505050565b612e968383613389565b612ea36000848484612ee7565b612ee2576040517f08c379a0000000000000000000000000000000000000000000000000000000008152600401612ed990614224565b60405180910390fd5b505050565b6000612f088473ffffffffffffffffffffffffffffffffffffffff16613563565b15613071578373ffffffffffffffffffffffffffffffffffffffff1663150b7a02612f316123f7565b8786866040518563ffffffff1660e01b8152600401612f539493929190614159565b602060405180830381600087803b158015612f6d57600080fd5b505af1925050508015612f9e57506040513d601f19601f82011682018060405250810190612f9b9190613af3565b60015b613021573d8060008114612fce576040519150601f19603f3d011682016040523d82523d6000602084013e612fd3565b606091505b50600081511415613019576040517f08c379a000000000000000000000000000000000000000000000000000000000815260040161301090614224565b60405180910390fd5b805181602001fd5b63150b7a0260e01b7bffffffffffffffffffffffffffffffffffffffffffffffffffffffff1916817bffffffffffffffffffffffffffffffffffffffffffffffffffffffff191614915050613076565b600190505b949350505050565b505050565b6008805490506009600083815260200190815260200160002081905550600881908060018154018082558091505060019003906000526020600020016000909190919091505550565b600060016130d984611616565b6130e39190614743565b90506000600760008481526020019081526020016000205490508181146131c8576000600660008673ffffffffffffffffffffffffffffffffffffffff1673ffffffffffffffffffffffffffffffffffffffff168152602001908152602001600020600084815260200190815260200160002054905080600660008773ffffffffffffffffffffffffffffffffffffffff1673ffffffffffffffffffffffffffffffffffffffff168152602001908152602001600020600084815260200190815260200160002081905550816007600083815260200190815260200160002081905550505b6007600084815260200190815260200160002060009055600660008573ffffffffffffffffffffffffffffffffffffffff1673ffffffffffffffffffffffffffffffffffffffff16815260200190815260200160002060008381526020019081526020016000206000905550505050565b6000600160088054905061324d9190614743565b905060006009600084815260200190815260200160002054905060006008838154811061327d5761327c6149c6565b5b90600052602060002001549050806008838154811061329f5761329e6149c6565b5b9060005260206000200181905550816009600083815260200190815260200160002081905550600960008581526020019081526020016000206000905560088054806132ee576132ed614997565b5b6001900381819060005260206000200160009055905550505050565b600061331583611616565b905081600660008573ffffffffffffffffffffffffffffffffffffffff1673ffffffffffffffffffffffffffffffffffffffff168152602001908152602001600020600083815260200190815260200160002081905550806007600084815260200190815260200160002081905550505050565b600073ffffffffffffffffffffffffffffffffffffffff168273ffffffffffffffffffffffffffffffffffffffff1614156133f9576040517f08c379a00000000000000000000000000000000000000000000000000000000081526004016133f0906143c4565b60405180910390fd5b613402816123ff565b15613442576040517f08c379a000000000000000000000000000000000000000000000000000000000815260040161343990614284565b60405180910390fd5b61344e60008383612d73565b6001600360008473ffffffffffffffffffffffffffffffffffffffff1673ffffffffffffffffffffffffffffffffffffffff168152602001908152602001600020600082825461349e9190614662565b92505081905550816002600083815260200190815260200160002060006101000a81548173ffffffffffffffffffffffffffffffffffffffff021916908373ffffffffffffffffffffffffffffffffffffffff160217905550808273ffffffffffffffffffffffffffffffffffffffff16600073ffffffffffffffffffffffffffffffffffffffff167fddf252ad1be2c89b69c2b068fc378daa952ba7f163c4a11628f55a4df523b3ef60405160405180910390a461355f60008383612e87565b5050565b6000808273ffffffffffffffffffffffffffffffffffffffff163b119050919050565b8280546135929061482d565b90600052602060002090601f0160209004810192826135b457600085556135fb565b82601f106135cd57805160ff19168380011785556135fb565b828001600101855582156135fb579182015b828111156135fa5782518255916020019190600101906135df565b5b50905061360891906136cd565b5090565b508054600082559060005260206000209081019061362a91906136cd565b50565b8280548282559060005260206000209081019282156136bc579160200282015b828111156136bb57823573ffffffffffffffffffffffffffffffffffffffff168260006101000a81548173ffffffffffffffffffffffffffffffffffffffff021916908373ffffffffffffffffffffffffffffffffffffffff1602179055509160200191906001019061364d565b5b5090506136c991906136cd565b5090565b5b808211156136e65760008160009055506001016136ce565b5090565b60006136fd6136f884614564565b61453f565b90508281526020810184848401111561371957613718614a33565b5b6137248482856147eb565b509392505050565b600061373f61373a84614595565b61453f565b90508281526020810184848401111561375b5761375a614a33565b5b6137668482856147eb565b509392505050565b60008135905061377d81615091565b92915050565b60008083601f84011261379957613798614a29565b5b8235905067ffffffffffffffff8111156137b6576137b5614a24565b5b6020830191508360208202830111156137d2576137d1614a2e565b5b9250929050565b6000813590506137e8816150a8565b92915050565b6000813590506137fd816150bf565b92915050565b600081519050613812816150bf565b92915050565b600082601f83011261382d5761382c614a29565b5b813561383d8482602086016136ea565b91505092915050565b600082601f83011261385b5761385a614a29565b5b813561386b84826020860161372c565b91505092915050565b600081359050613883816150d6565b92915050565b60006020828403121561389f5761389e614a3d565b5b60006138ad8482850161376e565b91505092915050565b600080604083850312156138cd576138cc614a3d565b5b60006138db8582860161376e565b92505060206138ec8582860161376e565b9150509250929050565b60008060006060848603121561390f5761390e614a3d565b5b600061391d8682870161376e565b935050602061392e8682870161376e565b925050604061393f86828701613874565b9150509250925092565b6000806000806080858703121561396357613962614a3d565b5b60006139718782880161376e565b94505060206139828782880161376e565b935050604061399387828801613874565b925050606085013567ffffffffffffffff8111156139b4576139b3614a38565b5b6139c087828801613818565b91505092959194509250565b600080604083850312156139e3576139e2614a3d565b5b60006139f18582860161376e565b9250506020613a02858286016137d9565b9150509250929050565b60008060408385031215613a2357613a22614a3d565b5b6000613a318582860161376e565b9250506020613a4285828601613874565b9150509250929050565b60008060208385031215613a6357613a62614a3d565b5b600083013567ffffffffffffffff811115613a8157613a80614a38565b5b613a8d85828601613783565b92509250509250929050565b600060208284031215613aaf57613aae614a3d565b5b6000613abd848285016137d9565b91505092915050565b600060208284031215613adc57613adb614a3d565b5b6000613aea848285016137ee565b91505092915050565b600060208284031215613b0957613b08614a3d565b5b6000613b1784828501613803565b91505092915050565b600060208284031215613b3657613b35614a3d565b5b600082013567ffffffffffffffff811115613b5457613b53614a38565b5b613b6084828501613846565b91505092915050565b600060208284031215613b7f57613b7e614a3d565b5b6000613b8d84828501613874565b91505092915050565b6000613ba283836140da565b60208301905092915050565b613bb781614777565b82525050565b6000613bc8826145eb565b613bd28185614619565b9350613bdd836145c6565b8060005b83811015613c0e578151613bf58882613b96565b9750613c008361460c565b925050600181019050613be1565b5085935050505092915050565b613c2481614789565b82525050565b6000613c35826145f6565b613c3f818561462a565b9350613c4f8185602086016147fa565b613c5881614a42565b840191505092915050565b6000613c6e82614601565b613c788185614646565b9350613c888185602086016147fa565b613c9181614a42565b840191505092915050565b6000613ca782614601565b613cb18185614657565b9350613cc18185602086016147fa565b80840191505092915050565b60008154613cda8161482d565b613ce48186614657565b94506001821660008114613cff5760018114613d1057613d43565b60ff19831686528186019350613d43565b613d19856145d6565b60005b83811015613d3b57815481890152600182019150602081019050613d1c565b838801955050505b50505092915050565b6000613d59602b83614646565b9150613d6482614a53565b604082019050919050565b6000613d7c603283614646565b9150613d8782614aa2565b604082019050919050565b6000613d9f602683614646565b9150613daa82614af1565b604082019050919050565b6000613dc2602583614646565b9150613dcd82614b40565b604082019050919050565b6000613de5601c83614646565b9150613df082614b8f565b602082019050919050565b6000613e08601c83614646565b9150613e1382614bb8565b602082019050919050565b6000613e2b602483614646565b9150613e3682614be1565b604082019050919050565b6000613e4e601983614646565b9150613e5982614c30565b602082019050919050565b6000613e71602c83614646565b9150613e7c82614c59565b604082019050919050565b6000613e94603883614646565b9150613e9f82614ca8565b604082019050919050565b6000613eb7602a83614646565b9150613ec282614cf7565b604082019050919050565b6000613eda602983614646565b9150613ee582614d46565b604082019050919050565b6000613efd601683614646565b9150613f0882614d95565b602082019050919050565b6000613f20602483614646565b9150613f2b82614dbe565b604082019050919050565b6000613f43602083614646565b9150613f4e82614e0d565b602082019050919050565b6000613f66602c83614646565b9150613f7182614e36565b604082019050919050565b6000613f89602083614646565b9150613f9482614e85565b602082019050919050565b6000613fac601683614646565b9150613fb782614eae565b602082019050919050565b6000613fcf602f83614646565b9150613fda82614ed7565b604082019050919050565b6000613ff2602183614646565b9150613ffd82614f26565b604082019050919050565b600061401560008361463b565b915061402082614f75565b600082019050919050565b6000614038601283614646565b915061404382614f78565b602082019050919050565b600061405b603183614646565b915061406682614fa1565b604082019050919050565b600061407e602c83614646565b915061408982614ff0565b604082019050919050565b60006140a1601783614646565b91506140ac8261503f565b602082019050919050565b60006140c4601b83614646565b91506140cf82615068565b602082019050919050565b6140e3816147e1565b82525050565b6140f2816147e1565b82525050565b60006141048286613c9c565b91506141108285613c9c565b915061411c8284613ccd565b9150819050949350505050565b600061413482614008565b9150819050919050565b60006020820190506141536000830184613bae565b92915050565b600060808201905061416e6000830187613bae565b61417b6020830186613bae565b61418860408301856140e9565b818103606083015261419a8184613c2a565b905095945050505050565b600060208201905081810360008301526141bf8184613bbd565b905092915050565b60006020820190506141dc6000830184613c1b565b92915050565b600060208201905081810360008301526141fc8184613c63565b905092915050565b6000602082019050818103600083015261421d81613d4c565b9050919050565b6000602082019050818103600083015261423d81613d6f565b9050919050565b6000602082019050818103600083015261425d81613d92565b9050919050565b6000602082019050818103600083015261427d81613db5565b9050919050565b6000602082019050818103600083015261429d81613dd8565b9050919050565b600060208201905081810360008301526142bd81613dfb565b9050919050565b600060208201905081810360008301526142dd81613e1e565b9050919050565b600060208201905081810360008301526142fd81613e41565b9050919050565b6000602082019050818103600083015261431d81613e64565b9050919050565b6000602082019050818103600083015261433d81613e87565b9050919050565b6000602082019050818103600083015261435d81613eaa565b9050919050565b6000602082019050818103600083015261437d81613ecd565b9050919050565b6000602082019050818103600083015261439d81613ef0565b9050919050565b600060208201905081810360008301526143bd81613f13565b9050919050565b600060208201905081810360008301526143dd81613f36565b9050919050565b600060208201905081810360008301526143fd81613f59565b9050919050565b6000602082019050818103600083015261441d81613f7c565b9050919050565b6000602082019050818103600083015261443d81613f9f565b9050919050565b6000602082019050818103600083015261445d81613fc2565b9050919050565b6000602082019050818103600083015261447d81613fe5565b9050919050565b6000602082019050818103600083015261449d8161402b565b9050919050565b600060208201905081810360008301526144bd8161404e565b9050919050565b600060208201905081810360008301526144dd81614071565b9050919050565b600060208201905081810360008301526144fd81614094565b9050919050565b6000602082019050818103600083015261451d816140b7565b9050919050565b600060208201905061453960008301846140e9565b92915050565b600061454961455a565b9050614555828261485f565b919050565b6000604051905090565b600067ffffffffffffffff82111561457f5761457e6149f5565b5b61458882614a42565b9050602081019050919050565b600067ffffffffffffffff8211156145b0576145af6149f5565b5b6145b982614a42565b9050602081019050919050565b6000819050602082019050919050565b60008190508160005260206000209050919050565b600081519050919050565b600081519050919050565b600081519050919050565b6000602082019050919050565b600082825260208201905092915050565b600082825260208201905092915050565b600081905092915050565b600082825260208201905092915050565b600081905092915050565b600061466d826147e1565b9150614678836147e1565b9250827fffffffffffffffffffffffffffffffffffffffffffffffffffffffffffffffff038211156146ad576146ac61490a565b5b828201905092915050565b60006146c3826147e1565b91506146ce836147e1565b9250826146de576146dd614939565b5b828204905092915050565b60006146f4826147e1565b91506146ff836147e1565b9250817fffffffffffffffffffffffffffffffffffffffffffffffffffffffffffffffff04831182151516156147385761473761490a565b5b828202905092915050565b600061474e826147e1565b9150614759836147e1565b92508282101561476c5761476b61490a565b5b828203905092915050565b6000614782826147c1565b9050919050565b60008115159050919050565b60007fffffffff0000000000000000000000000000000000000000000000000000000082169050919050565b600073ffffffffffffffffffffffffffffffffffffffff82169050919050565b6000819050919050565b82818337600083830152505050565b60005b838110156148185780820151818401526020810190506147fd565b83811115614827576000848401525b50505050565b6000600282049050600182168061484557607f821691505b6020821081141561485957614858614968565b5b50919050565b61486882614a42565b810181811067ffffffffffffffff82111715614887576148866149f5565b5b80604052505050565b600061489b826147e1565b91507fffffffffffffffffffffffffffffffffffffffffffffffffffffffffffffffff8214156148ce576148cd61490a565b5b600182019050919050565b60006148e4826147e1565b91506148ef836147e1565b9250826148ff576148fe614939565b5b828206905092915050565b7f4e487b7100000000000000000000000000000000000000000000000000000000600052601160045260246000fd5b7f4e487b7100000000000000000000000000000000000000000000000000000000600052601260045260246000fd5b7f4e487b7100000000000000000000000000000000000000000000000000000000600052602260045260246000fd5b7f4e487b7100000000000000000000000000000000000000000000000000000000600052603160045260246000fd5b7f4e487b7100000000000000000000000000000000000000000000000000000000600052603260045260246000fd5b7f4e487b7100000000000000000000000000000000000000000000000000000000600052604160045260246000fd5b600080fd5b600080fd5b600080fd5b600080fd5b600080fd5b600080fd5b6000601f19601f8301169050919050565b7f455243373231456e756d657261626c653a206f776e657220696e646578206f7560008201527f74206f6620626f756e6473000000000000000000000000000000000000000000602082015250565b7f4552433732313a207472616e7366657220746f206e6f6e20455243373231526560008201527f63656976657220696d706c656d656e7465720000000000000000000000000000602082015250565b7f4f776e61626c653a206e6577206f776e657220697320746865207a65726f206160008201527f6464726573730000000000000000000000000000000000000000000000000000602082015250565b7f4552433732313a207472616e736665722066726f6d20696e636f72726563742060008201527f6f776e6572000000000000000000000000000000000000000000000000000000602082015250565b7f4552433732313a20746f6b656e20616c7265616479206d696e74656400000000600082015250565b7f6d6178204e465420706572206164647265737320657863656564656400000000600082015250565b7f4552433732313a207472616e7366657220746f20746865207a65726f2061646460008201527f7265737300000000000000000000000000000000000000000000000000000000602082015250565b7f4552433732313a20617070726f766520746f2063616c6c657200000000000000600082015250565b7f4552433732313a206f70657261746f7220717565727920666f72206e6f6e657860008201527f697374656e7420746f6b656e0000000000000000000000000000000000000000602082015250565b7f4552433732313a20617070726f76652063616c6c6572206973206e6f74206f7760008201527f6e6572206e6f7220617070726f76656420666f7220616c6c0000000000000000602082015250565b7f4552433732313a2062616c616e636520717565727920666f7220746865207a6560008201527f726f206164647265737300000000000000000000000000000000000000000000602082015250565b7f4552433732313a206f776e657220717565727920666f72206e6f6e657869737460008201527f656e7420746f6b656e0000000000000000000000000000000000000000000000602082015250565b7f6d6178204e4654206c696d697420657863656564656400000000000000000000600082015250565b7f6d6178206d696e7420616d6f756e74207065722073657373696f6e206578636560008201527f6564656400000000000000000000000000000000000000000000000000000000602082015250565b7f4552433732313a206d696e7420746f20746865207a65726f2061646472657373600082015250565b7f4552433732313a20617070726f76656420717565727920666f72206e6f6e657860008201527f697374656e7420746f6b656e0000000000000000000000000000000000000000602082015250565b7f4f776e61626c653a2063616c6c6572206973206e6f7420746865206f776e6572600082015250565b7f74686520636f6e74726163742069732070617573656400000000000000000000600082015250565b7f4552433732314d657461646174613a2055524920717565727920666f72206e6f60008201527f6e6578697374656e7420746f6b656e0000000000000000000000000000000000602082015250565b7f4552433732313a20617070726f76616c20746f2063757272656e74206f776e6560008201527f7200000000000000000000000000000000000000000000000000000000000000602082015250565b50565b7f696e73756666696369656e742066756e64730000000000000000000000000000600082015250565b7f4552433732313a207472616e736665722063616c6c6572206973206e6f74206f60008201527f776e6572206e6f7220617070726f766564000000000000000000000000000000602082015250565b7f455243373231456e756d657261626c653a20676c6f62616c20696e646578206f60008201527f7574206f6620626f756e64730000000000000000000000000000000000000000602082015250565b7f75736572206973206e6f742077686974656c6973746564000000000000000000600082015250565b7f6e65656420746f206d696e74206174206c656173742031204e46540000000000600082015250565b61509a81614777565b81146150a557600080fd5b50565b6150b181614789565b81146150bc57600080fd5b50565b6150c881614795565b81146150d357600080fd5b50565b6150df816147e1565b81146150ea57600080fd5b5056fea26469706673582212209cc8672544f580b496e075383f9b28b66bd6f82290474610ccb755b9c037978a64736f6c63430008070033",
  "linkReferences": {},
  "deployedLinkReferences": {}
}