{
  "_format": "hh-sol-artifact-1",
  "contractName": "MyNFT",
  "sourceName": "contracts/MyNFT.sol",
  "abi": [
    {
      "inputs": [
        {
          "internalType": "string",
          "name": "_name",
          "type": "string"
        },
        {
          "internalType": "string",
          "name": "_symbol",
          "type": "string"
        },
        {
          "internalType": "string",
          "name": "_initBaseURI",
          "type": "string"
        },
        {
          "internalType": "string",
          "name": "_initNotRevealedUri",
          "type": "string"
        }
      ],
      "stateMutability": "nonpayable",
      "type": "constructor"
    },
    {
      "anonymous": false,
      "inputs": [
        {
          "indexed": true,
          "internalType": "address",
          "name": "owner",
          "type": "address"
        },
        {
          "indexed": true,
          "internalType": "address",
          "name": "approved",
          "type": "address"
        },
        {
          "indexed": true,
          "internalType": "uint256",
          "name": "tokenId",
          "type": "uint256"
        }
      ],
      "name": "Approval",
      "type": "event"
    },
    {
      "anonymous": false,
      "inputs": [
        {
          "indexed": true,
          "internalType": "address",
          "name": "owner",
          "type": "address"
        },
        {
          "indexed": true,
          "internalType": "address",
          "name": "operator",
          "type": "address"
        },
        {
          "indexed": false,
          "internalType": "bool",
          "name": "approved",
          "type": "bool"
        }
      ],
      "name": "ApprovalForAll",
      "type": "event"
    },
    {
      "anonymous": false,
      "inputs": [
        {
          "indexed": true,
          "internalType": "address",
          "name": "previousOwner",
          "type": "address"
        },
        {
          "indexed": true,
          "internalType": "address",
          "name": "newOwner",
          "type": "address"
        }
      ],
      "name": "OwnershipTransferred",
      "type": "event"
    },
    {
      "anonymous": false,
      "inputs": [
        {
          "indexed": true,
          "internalType": "address",
          "name": "from",
          "type": "address"
        },
        {
          "indexed": true,
          "internalType": "address",
          "name": "to",
          "type": "address"
        },
        {
          "indexed": true,
          "internalType": "uint256",
          "name": "tokenId",
          "type": "uint256"
        }
      ],
      "name": "Transfer",
      "type": "event"
    },
    {
      "inputs": [
        {
          "internalType": "address",
          "name": "",
          "type": "address"
        }
      ],
      "name": "addressMintedBalance",
      "outputs": [
        {
          "internalType": "uint256",
          "name": "",
          "type": "uint256"
        }
      ],
      "stateMutability": "view",
      "type": "function"
    },
    {
      "inputs": [
        {
          "internalType": "address",
          "name": "to",
          "type": "address"
        },
        {
          "internalType": "uint256",
          "name": "tokenId",
          "type": "uint256"
        }
      ],
      "name": "approve",
      "outputs": [],
      "stateMutability": "nonpayable",
      "type": "function"
    },
    {
      "inputs": [
        {
          "internalType": "address",
          "name": "owner",
          "type": "address"
        }
      ],
      "name": "balanceOf",
      "outputs": [
        {
          "internalType": "uint256",
          "name": "",
          "type": "uint256"
        }
      ],
      "stateMutability": "view",
      "type": "function"
    },
    {
      "inputs": [],
      "name": "baseExtension",
      "outputs": [
        {
          "internalType": "string",
          "name": "",
          "type": "string"
        }
      ],
      "stateMutability": "view",
      "type": "function"
    },
    {
      "inputs": [],
      "name": "cost",
      "outputs": [
        {
          "internalType": "uint256",
          "name": "",
          "type": "uint256"
        }
      ],
      "stateMutability": "view",
      "type": "function"
    },
    {
      "inputs": [
        {
          "internalType": "uint256",
          "name": "tokenId",
          "type": "uint256"
        }
      ],
      "name": "getApproved",
      "outputs": [
        {
          "internalType": "address",
          "name": "",
          "type": "address"
        }
      ],
      "stateMutability": "view",
      "type": "function"
    },
    {
      "inputs": [
        {
          "internalType": "address",
          "name": "owner",
          "type": "address"
        },
        {
          "internalType": "address",
          "name": "operator",
          "type": "address"
        }
      ],
      "name": "isApprovedForAll",
      "outputs": [
        {
          "internalType": "bool",
          "name": "",
          "type": "bool"
        }
      ],
      "stateMutability": "view",
      "type": "function"
    },
    {
      "inputs": [
        {
          "internalType": "address",
          "name": "_user",
          "type": "address"
        }
      ],
      "name": "isWhitelisted",
      "outputs": [
        {
          "internalType": "bool",
          "name": "",
          "type": "bool"
        }
      ],
      "stateMutability": "view",
      "type": "function"
    },
    {
      "inputs": [],
      "name": "maxMintAmount",
      "outputs": [
        {
          "internalType": "uint256",
          "name": "",
          "type": "uint256"
        }
      ],
      "stateMutability": "view",
      "type": "function"
    },
    {
      "inputs": [],
      "name": "maxSupply",
      "outputs": [
        {
          "internalType": "uint256",
          "name": "",
          "type": "uint256"
        }
      ],
      "stateMutability": "view",
      "type": "function"
    },
    {
      "inputs": [
        {
          "internalType": "uint256",
          "name": "_mintAmount",
          "type": "uint256"
        }
      ],
      "name": "mint",
      "outputs": [],
      "stateMutability": "payable",
      "type": "function"
    },
    {
      "inputs": [],
      "name": "name",
      "outputs": [
        {
          "internalType": "string",
          "name": "",
          "type": "string"
        }
      ],
      "stateMutability": "view",
      "type": "function"
    },
    {
      "inputs": [],
      "name": "nftPerAddressLimit",
      "outputs": [
        {
          "internalType": "uint256",
          "name": "",
          "type": "uint256"
        }
      ],
      "stateMutability": "view",
      "type": "function"
    },
    {
      "inputs": [],
      "name": "notRevealedUri",
      "outputs": [
        {
          "internalType": "string",
          "name": "",
          "type": "string"
        }
      ],
      "stateMutability": "view",
      "type": "function"
    },
    {
      "inputs": [],
      "name": "onlyWhitelisted",
      "outputs": [
        {
          "internalType": "bool",
          "name": "",
          "type": "bool"
        }
      ],
      "stateMutability": "view",
      "type": "function"
    },
    {
      "inputs": [],
      "name": "owner",
      "outputs": [
        {
          "internalType": "address",
          "name": "",
          "type": "address"
        }
      ],
      "stateMutability": "view",
      "type": "function"
    },
    {
      "inputs": [
        {
          "internalType": "uint256",
          "name": "tokenId",
          "type": "uint256"
        }
      ],
      "name": "ownerOf",
      "outputs": [
        {
          "internalType": "address",
          "name": "",
          "type": "address"
        }
      ],
      "stateMutability": "view",
      "type": "function"
    },
    {
      "inputs": [
        {
          "internalType": "bool",
          "name": "_state",
          "type": "bool"
        }
      ],
      "name": "pause",
      "outputs": [],
      "stateMutability": "nonpayable",
      "type": "function"
    },
    {
      "inputs": [],
      "name": "paused",
      "outputs": [
        {
          "internalType": "bool",
          "name": "",
          "type": "bool"
        }
      ],
      "stateMutability": "view",
      "type": "function"
    },
    {
      "inputs": [],
      "name": "renounceOwnership",
      "outputs": [],
      "stateMutability": "nonpayable",
      "type": "function"
    },
    {
      "inputs": [],
      "name": "reveal",
      "outputs": [],
      "stateMutability": "nonpayable",
      "type": "function"
    },
    {
      "inputs": [],
      "name": "revealed",
      "outputs": [
        {
          "internalType": "bool",
          "name": "",
          "type": "bool"
        }
      ],
      "stateMutability": "view",
      "type": "function"
    },
    {
      "inputs": [
        {
          "internalType": "address",
          "name": "from",
          "type": "address"
        },
        {
          "internalType": "address",
          "name": "to",
          "type": "address"
        },
        {
          "internalType": "uint256",
          "name": "tokenId",
          "type": "uint256"
        }
      ],
      "name": "safeTransferFrom",
      "outputs": [],
      "stateMutability": "nonpayable",
      "type": "function"
    },
    {
      "inputs": [
        {
          "internalType": "address",
          "name": "from",
          "type": "address"
        },
        {
          "internalType": "address",
          "name": "to",
          "type": "address"
        },
        {
          "internalType": "uint256",
          "name": "tokenId",
          "type": "uint256"
        },
        {
          "internalType": "bytes",
          "name": "_data",
          "type": "bytes"
        }
      ],
      "name": "safeTransferFrom",
      "outputs": [],
      "stateMutability": "nonpayable",
      "type": "function"
    },
    {
      "inputs": [
        {
          "internalType": "address",
          "name": "operator",
          "type": "address"
        },
        {
          "internalType": "bool",
          "name": "approved",
          "type": "bool"
        }
      ],
      "name": "setApprovalForAll",
      "outputs": [],
      "stateMutability": "nonpayable",
      "type": "function"
    },
    {
      "inputs": [
        {
          "internalType": "string",
          "name": "_newBaseExtension",
          "type": "string"
        }
      ],
      "name": "setBaseExtension",
      "outputs": [],
      "stateMutability": "nonpayable",
      "type": "function"
    },
    {
      "inputs": [
        {
          "internalType": "string",
          "name": "_newBaseURI",
          "type": "string"
        }
      ],
      "name": "setBaseURI",
      "outputs": [],
      "stateMutability": "nonpayable",
      "type": "function"
    },
    {
      "inputs": [
        {
          "internalType": "uint256",
          "name": "_newCost",
          "type": "uint256"
        }
      ],
      "name": "setCost",
      "outputs": [],
      "stateMutability": "nonpayable",
      "type": "function"
    },
    {
      "inputs": [
        {
          "internalType": "uint256",
          "name": "_limit",
          "type": "uint256"
        }
      ],
      "name": "setNftPerAddressLimit",
      "outputs": [],
      "stateMutability": "nonpayable",
      "type": "function"
    },
    {
      "inputs": [
        {
          "internalType": "string",
          "name": "_notRevealedURI",
          "type": "string"
        }
      ],
      "name": "setNotRevealedURI",
      "outputs": [],
      "stateMutability": "nonpayable",
      "type": "function"
    },
    {
      "inputs": [
        {
          "internalType": "bool",
          "name": "_state",
          "type": "bool"
        }
      ],
      "name": "setOnlyWhitelisted",
      "outputs": [],
      "stateMutability": "nonpayable",
      "type": "function"
    },
    {
      "inputs": [
        {
          "internalType": "uint256",
          "name": "_newmaxMintAmount",
          "type": "uint256"
        }
      ],
      "name": "setmaxMintAmount",
      "outputs": [],
      "stateMutability": "nonpayable",
      "type": "function"
    },
    {
      "inputs": [
        {
          "internalType": "bytes4",
          "name": "interfaceId",
          "type": "bytes4"
        }
      ],
      "name": "supportsInterface",
      "outputs": [
        {
          "internalType": "bool",
          "name": "",
          "type": "bool"
        }
      ],
      "stateMutability": "view",
      "type": "function"
    },
    {
      "inputs": [],
      "name": "symbol",
      "outputs": [
        {
          "internalType": "string",
          "name": "",
          "type": "string"
        }
      ],
      "stateMutability": "view",
      "type": "function"
    },
    {
      "inputs": [
        {
          "internalType": "uint256",
          "name": "index",
          "type": "uint256"
        }
      ],
      "name": "tokenByIndex",
      "outputs": [
        {
          "internalType": "uint256",
          "name": "",
          "type": "uint256"
        }
      ],
      "stateMutability": "view",
      "type": "function"
    },
    {
      "inputs": [
        {
          "internalType": "address",
          "name": "owner",
          "type": "address"
        },
        {
          "internalType": "uint256",
          "name": "index",
          "type": "uint256"
        }
      ],
      "name": "tokenOfOwnerByIndex",
      "outputs": [
        {
          "internalType": "uint256",
          "name": "",
          "type": "uint256"
        }
      ],
      "stateMutability": "view",
      "type": "function"
    },
    {
      "inputs": [
        {
          "internalType": "uint256",
          "name": "tokenId",
          "type": "uint256"
        }
      ],
      "name": "tokenURI",
      "outputs": [
        {
          "internalType": "string",
          "name": "",
          "type": "string"
        }
      ],
      "stateMutability": "view",
      "type": "function"
    },
    {
      "inputs": [],
      "name": "totalSupply",
      "outputs": [
        {
          "internalType": "uint256",
          "name": "",
          "type": "uint256"
        }
      ],
      "stateMutability": "view",
      "type": "function"
    },
    {
      "inputs": [
        {
          "internalType": "address",
          "name": "from",
          "type": "address"
        },
        {
          "internalType": "address",
          "name": "to",
          "type": "address"
        },
        {
          "internalType": "uint256",
          "name": "tokenId",
          "type": "uint256"
        }
      ],
      "name": "transferFrom",
      "outputs": [],
      "stateMutability": "nonpayable",
      "type": "function"
    },
    {
      "inputs": [
        {
          "internalType": "address",
          "name": "newOwner",
          "type": "address"
        }
      ],
      "name": "transferOwnership",
      "outputs": [],
      "stateMutability": "nonpayable",
      "type": "function"
    },
    {
      "inputs": [],
      "name": "unreveal",
      "outputs": [],
      "stateMutability": "nonpayable",
      "type": "function"
    },
    {
      "inputs": [
        {
          "internalType": "address",
          "name": "_owner",
          "type": "address"
        }
      ],
      "name": "walletOfOwner",
      "outputs": [
        {
          "internalType": "uint256[]",
          "name": "",
          "type": "uint256[]"
        }
      ],
      "stateMutability": "view",
      "type": "function"
    },
    {
      "inputs": [
        {
          "internalType": "address[]",
          "name": "_users",
          "type": "address[]"
        }
      ],
      "name": "whitelistUsers",
      "outputs": [],
      "stateMutability": "nonpayable",
      "type": "function"
    },
    {
      "inputs": [
        {
          "internalType": "uint256",
          "name": "",
          "type": "uint256"
        }
      ],
      "name": "whitelistedAddresses",
      "outputs": [
        {
          "internalType": "address",
          "name": "",
          "type": "address"
        }
      ],
      "stateMutability": "view",
      "type": "function"
    },
    {
      "inputs": [],
      "name": "withdraw",
      "outputs": [],
      "stateMutability": "payable",
      "type": "function"
    }
  ],
  "bytecode": "0x60806040526040518060400160405280600581526020017f2e6a736f6e000000000000000000000000000000000000000000000000000000815250600c908051906020019062000051929190620003bb565b506000600e55612710600f55601460105560036011556001601260006101000a81548160ff0219169083151502179055506000601260016101000a81548160ff0219169083151502179055506001601260026101000a81548160ff021916908315150217905550348015620000c557600080fd5b5060405162005908380380620059088339818101604052810190620000eb9190620004e9565b8383816000908051906020019062000105929190620003bb565b5080600190805190602001906200011e929190620003bb565b50505062000141620001356200016d60201b60201c565b6200017560201b60201c565b62000152826200023b60201b60201c565b6200016381620002e660201b60201c565b50505050620007de565b600033905090565b6000600a60009054906101000a900473ffffffffffffffffffffffffffffffffffffffff16905081600a60006101000a81548173ffffffffffffffffffffffffffffffffffffffff021916908373ffffffffffffffffffffffffffffffffffffffff1602179055508173ffffffffffffffffffffffffffffffffffffffff168173ffffffffffffffffffffffffffffffffffffffff167f8be0079c531659141344cd1fd0a4f28419497f9722a3daafe3b4186f6b6457e060405160405180910390a35050565b6200024b6200016d60201b60201c565b73ffffffffffffffffffffffffffffffffffffffff16620002716200039160201b60201c565b73ffffffffffffffffffffffffffffffffffffffff1614620002ca576040517f08c379a0000000000000000000000000000000000000000000000000000000008152600401620002c190620005fe565b60405180910390fd5b80600b9080519060200190620002e2929190620003bb565b5050565b620002f66200016d60201b60201c565b73ffffffffffffffffffffffffffffffffffffffff166200031c6200039160201b60201c565b73ffffffffffffffffffffffffffffffffffffffff161462000375576040517f08c379a00000000000000000000000000000000000000000000000000000000081526004016200036c90620005fe565b60405180910390fd5b80600d90805190602001906200038d929190620003bb565b5050565b6000600a60009054906101000a900473ffffffffffffffffffffffffffffffffffffffff16905090565b828054620003c990620006c6565b90600052602060002090601f016020900481019282620003ed576000855562000439565b82601f106200040857805160ff191683800117855562000439565b8280016001018555821562000439579182015b82811115620004385782518255916020019190600101906200041b565b5b5090506200044891906200044c565b5090565b5b80821115620004675760008160009055506001016200044d565b5090565b6000620004826200047c8462000649565b62000620565b905082815260208101848484011115620004a157620004a062000795565b5b620004ae84828562000690565b509392505050565b600082601f830112620004ce57620004cd62000790565b5b8151620004e08482602086016200046b565b91505092915050565b600080600080608085870312156200050657620005056200079f565b5b600085015167ffffffffffffffff8111156200052757620005266200079a565b5b6200053587828801620004b6565b945050602085015167ffffffffffffffff8111156200055957620005586200079a565b5b6200056787828801620004b6565b935050604085015167ffffffffffffffff8111156200058b576200058a6200079a565b5b6200059987828801620004b6565b925050606085015167ffffffffffffffff811115620005bd57620005bc6200079a565b5b620005cb87828801620004b6565b91505092959194509250565b6000620005e66020836200067f565b9150620005f382620007b5565b602082019050919050565b600060208201905081810360008301526200061981620005d7565b9050919050565b60006200062c6200063f565b90506200063a8282620006fc565b919050565b6000604051905090565b600067ffffffffffffffff82111562000667576200066662000761565b5b6200067282620007a4565b9050602081019050919050565b600082825260208201905092915050565b60005b83811015620006b057808201518184015260208101905062000693565b83811115620006c0576000848401525b50505050565b60006002820490506001821680620006df57607f821691505b60208210811415620006f657620006f562000732565b5b50919050565b6200070782620007a4565b810181811067ffffffffffffffff8211171562000729576200072862000761565b5b80604052505050565b7f4e487b7100000000000000000000000000000000000000000000000000000000600052602260045260246000fd5b7f4e487b7100000000000000000000000000000000000000000000000000000000600052604160045260246000fd5b600080fd5b600080fd5b600080fd5b600080fd5b6000601f19601f8301169050919050565b7f4f776e61626c653a2063616c6c6572206973206e6f7420746865206f776e6572600082015250565b61511a80620007ee6000396000f3fe6080604052600436106102725760003560e01c80635c975abb1161014f578063b88d4fde116100c1578063d5abeb011161007a578063d5abeb0114610948578063da3ef23f14610973578063e985e9c51461099c578063edec5f27146109d9578063f2c4ce1e14610a02578063f2fde38b14610a2b57610272565b8063b88d4fde14610826578063ba4e5c491461084f578063ba7d2c761461088c578063c6682862146108b7578063c87b56dd146108e2578063d0eb26b01461091f57610272565b80638da5cb5b116101135780638da5cb5b1461074957806395d89b41146107745780639c70b5121461079f578063a0712d68146107ca578063a22cb465146107e6578063a475b5dd1461080f57610272565b80635c975abb146106645780636352211e1461068f57806370a08231146106cc578063715018a6146107095780637f00c7a61461072057610272565b806323b872dd116101e857806342842e0e116101ac57806342842e0e14610544578063438b63001461056d57806344a0d68a146105aa5780634f6ccce7146105d3578063518302271461061057806355f804b31461063b57610272565b806323b872dd1461046e5780632f745c59146104975780633af32abf146104d45780633c952764146105115780633ccfd60b1461053a57610272565b8063095ea7b31161023a578063095ea7b31461037057806313faede614610399578063158756b9146103c457806318160ddd146103db57806318cae26914610406578063239c70ae1461044357610272565b806301ffc9a71461027757806302329a29146102b457806306fdde03146102dd578063081812fc14610308578063081c8c4414610345575b600080fd5b34801561028357600080fd5b5061029e60048036038101906102999190613abd565b610a54565b6040516102ab91906141be565b60405180910390f35b3480156102c057600080fd5b506102db60048036038101906102d69190613a90565b610ace565b005b3480156102e957600080fd5b506102f2610b67565b6040516102ff91906141d9565b60405180910390f35b34801561031457600080fd5b5061032f600480360381019061032a9190613b60565b610bf9565b60405161033c9190614135565b60405180910390f35b34801561035157600080fd5b5061035a610c7e565b60405161036791906141d9565b60405180910390f35b34801561037c57600080fd5b5061039760048036038101906103929190613a03565b610d0c565b005b3480156103a557600080fd5b506103ae610e24565b6040516103bb919061451b565b60405180910390f35b3480156103d057600080fd5b506103d9610e2a565b005b3480156103e757600080fd5b506103f0610ec3565b6040516103fd919061451b565b60405180910390f35b34801561041257600080fd5b5061042d60048036038101906104289190613880565b610ed0565b60405161043a919061451b565b60405180910390f35b34801561044f57600080fd5b50610458610ee8565b604051610465919061451b565b60405180910390f35b34801561047a57600080fd5b50610495600480360381019061049091906138ed565b610eee565b005b3480156104a357600080fd5b506104be60048036038101906104b99190613a03565b610f4e565b6040516104cb919061451b565b60405180910390f35b3480156104e057600080fd5b506104fb60048036038101906104f69190613880565b610ff3565b60405161050891906141be565b60405180910390f35b34801561051d57600080fd5b5061053860048036038101906105339190613a90565b6110a2565b005b61054261113b565b005b34801561055057600080fd5b5061056b600480360381019061056691906138ed565b6112da565b005b34801561057957600080fd5b50610594600480360381019061058f9190613880565b6112fa565b6040516105a1919061419c565b60405180910390f35b3480156105b657600080fd5b506105d160048036038101906105cc9190613b60565b6113a8565b005b3480156105df57600080fd5b506105fa60048036038101906105f59190613b60565b61142e565b604051610607919061451b565b60405180910390f35b34801561061c57600080fd5b5061062561149f565b60405161063291906141be565b60405180910390f35b34801561064757600080fd5b50610662600480360381019061065d9190613b17565b6114b2565b005b34801561067057600080fd5b50610679611548565b60405161068691906141be565b60405180910390f35b34801561069b57600080fd5b506106b660048036038101906106b19190613b60565b61155b565b6040516106c39190614135565b60405180910390f35b3480156106d857600080fd5b506106f360048036038101906106ee9190613880565b61160d565b604051610700919061451b565b60405180910390f35b34801561071557600080fd5b5061071e6116c5565b005b34801561072c57600080fd5b5061074760048036038101906107429190613b60565b61174d565b005b34801561075557600080fd5b5061075e6117d3565b60405161076b9190614135565b60405180910390f35b34801561078057600080fd5b506107896117fd565b60405161079691906141d9565b60405180910390f35b3480156107ab57600080fd5b506107b461188f565b6040516107c191906141be565b60405180910390f35b6107e460048036038101906107df9190613b60565b6118a2565b005b3480156107f257600080fd5b5061080d600480360381019061080891906139c3565b611beb565b005b34801561081b57600080fd5b50610824611c01565b005b34801561083257600080fd5b5061084d60048036038101906108489190613940565b611c9a565b005b34801561085b57600080fd5b5061087660048036038101906108719190613b60565b611cfc565b6040516108839190614135565b60405180910390f35b34801561089857600080fd5b506108a1611d3b565b6040516108ae919061451b565b60405180910390f35b3480156108c357600080fd5b506108cc611d41565b6040516108d991906141d9565b60405180910390f35b3480156108ee57600080fd5b5061090960048036038101906109049190613b60565b611dcf565b60405161091691906141d9565b60405180910390f35b34801561092b57600080fd5b5061094660048036038101906109419190613b60565b611f28565b005b34801561095457600080fd5b5061095d611fae565b60405161096a919061451b565b60405180910390f35b34801561097f57600080fd5b5061099a60048036038101906109959190613b17565b611fb4565b005b3480156109a857600080fd5b506109c360048036038101906109be91906138ad565b61204a565b6040516109d091906141be565b60405180910390f35b3480156109e557600080fd5b50610a0060048036038101906109fb9190613a43565b6120de565b005b348015610a0e57600080fd5b50610a296004803603810190610a249190613b17565b61217e565b005b348015610a3757600080fd5b50610a526004803603810190610a4d9190613880565b612214565b005b60007f780e9d63000000000000000000000000000000000000000000000000000000007bffffffffffffffffffffffffffffffffffffffffffffffffffffffff1916827bffffffffffffffffffffffffffffffffffffffffffffffffffffffff19161480610ac75750610ac68261230c565b5b9050919050565b610ad66123ee565b73ffffffffffffffffffffffffffffffffffffffff16610af46117d3565b73ffffffffffffffffffffffffffffffffffffffff1614610b4a576040517f08c379a0000000000000000000000000000000000000000000000000000000008152600401610b41906143fb565b60405180910390fd5b80601260006101000a81548160ff02191690831515021790555050565b606060008054610b7690614824565b80601f0160208091040260200160405190810160405280929190818152602001828054610ba290614824565b8015610bef5780601f10610bc457610100808354040283529160200191610bef565b820191906000526020600020905b815481529060010190602001808311610bd257829003601f168201915b5050505050905090565b6000610c04826123f6565b610c43576040517f08c379a0000000000000000000000000000000000000000000000000000000008152600401610c3a906143db565b60405180910390fd5b6004600083815260200190815260200160002060009054906101000a900473ffffffffffffffffffffffffffffffffffffffff169050919050565b600d8054610c8b90614824565b80601f0160208091040260200160405190810160405280929190818152602001828054610cb790614824565b8015610d045780601f10610cd957610100808354040283529160200191610d04565b820191906000526020600020905b815481529060010190602001808311610ce757829003601f168201915b505050505081565b6000610d178261155b565b90508073ffffffffffffffffffffffffffffffffffffffff168373ffffffffffffffffffffffffffffffffffffffff161415610d88576040517f08c379a0000000000000000000000000000000000000000000000000000000008152600401610d7f9061445b565b60405180910390fd5b8073ffffffffffffffffffffffffffffffffffffffff16610da76123ee565b73ffffffffffffffffffffffffffffffffffffffff161480610dd65750610dd581610dd06123ee565b61204a565b5b610e15576040517f08c379a0000000000000000000000000000000000000000000000000000000008152600401610e0c9061431b565b60405180910390fd5b610e1f8383612462565b505050565b600e5481565b610e326123ee565b73ffffffffffffffffffffffffffffffffffffffff16610e506117d3565b73ffffffffffffffffffffffffffffffffffffffff1614610ea6576040517f08c379a0000000000000000000000000000000000000000000000000000000008152600401610e9d906143fb565b60405180910390fd5b6000601260016101000a81548160ff021916908315150217905550565b6000600880549050905090565b60146020528060005260406000206000915090505481565b60105481565b610eff610ef96123ee565b8261251b565b610f3e576040517f08c379a0000000000000000000000000000000000000000000000000000000008152600401610f359061449b565b60405180910390fd5b610f498383836125f9565b505050565b6000610f598361160d565b8210610f9a576040517f08c379a0000000000000000000000000000000000000000000000000000000008152600401610f91906141fb565b60405180910390fd5b600660008473ffffffffffffffffffffffffffffffffffffffff1673ffffffffffffffffffffffffffffffffffffffff168152602001908152602001600020600083815260200190815260200160002054905092915050565b600080600090505b601380549050811015611097578273ffffffffffffffffffffffffffffffffffffffff1660138281548110611033576110326149bd565b5b9060005260206000200160009054906101000a900473ffffffffffffffffffffffffffffffffffffffff1673ffffffffffffffffffffffffffffffffffffffff16141561108457600191505061109d565b808061108f90614887565b915050610ffb565b50600090505b919050565b6110aa6123ee565b73ffffffffffffffffffffffffffffffffffffffff166110c86117d3565b73ffffffffffffffffffffffffffffffffffffffff161461111e576040517f08c379a0000000000000000000000000000000000000000000000000000000008152600401611115906143fb565b60405180910390fd5b80601260026101000a81548160ff02191690831515021790555050565b6111436123ee565b73ffffffffffffffffffffffffffffffffffffffff166111616117d3565b73ffffffffffffffffffffffffffffffffffffffff16146111b7576040517f08c379a00000000000000000000000000000000000000000000000000000000081526004016111ae906143fb565b60405180910390fd5b600073943590a42c27d08e3744202c4ae5ed55c2de240d73ffffffffffffffffffffffffffffffffffffffff1660646005476111f391906146e0565b6111fd91906146af565b60405161120990614120565b60006040518083038185875af1925050503d8060008114611246576040519150601f19603f3d011682016040523d82523d6000602084013e61124b565b606091505b505090508061125957600080fd5b60006112636117d3565b73ffffffffffffffffffffffffffffffffffffffff164760405161128690614120565b60006040518083038185875af1925050503d80600081146112c3576040519150601f19603f3d011682016040523d82523d6000602084013e6112c8565b606091505b50509050806112d657600080fd5b5050565b6112f583838360405180602001604052806000815250611c9a565b505050565b606060006113078361160d565b905060008167ffffffffffffffff811115611325576113246149ec565b5b6040519080825280602002602001820160405280156113535781602001602082028036833780820191505090505b50905060005b8281101561139d5761136b8582610f4e565b82828151811061137e5761137d6149bd565b5b602002602001018181525050808061139590614887565b915050611359565b508092505050919050565b6113b06123ee565b73ffffffffffffffffffffffffffffffffffffffff166113ce6117d3565b73ffffffffffffffffffffffffffffffffffffffff1614611424576040517f08c379a000000000000000000000000000000000000000000000000000000000815260040161141b906143fb565b60405180910390fd5b80600e8190555050565b6000611438610ec3565b8210611479576040517f08c379a0000000000000000000000000000000000000000000000000000000008152600401611470906144bb565b60405180910390fd5b6008828154811061148d5761148c6149bd565b5b90600052602060002001549050919050565b601260019054906101000a900460ff1681565b6114ba6123ee565b73ffffffffffffffffffffffffffffffffffffffff166114d86117d3565b73ffffffffffffffffffffffffffffffffffffffff161461152e576040517f08c379a0000000000000000000000000000000000000000000000000000000008152600401611525906143fb565b60405180910390fd5b80600b908051906020019061154492919061357d565b5050565b601260009054906101000a900460ff1681565b6000806002600084815260200190815260200160002060009054906101000a900473ffffffffffffffffffffffffffffffffffffffff169050600073ffffffffffffffffffffffffffffffffffffffff168173ffffffffffffffffffffffffffffffffffffffff161415611604576040517f08c379a00000000000000000000000000000000000000000000000000000000081526004016115fb9061435b565b60405180910390fd5b80915050919050565b60008073ffffffffffffffffffffffffffffffffffffffff168273ffffffffffffffffffffffffffffffffffffffff16141561167e576040517f08c379a00000000000000000000000000000000000000000000000000000000081526004016116759061433b565b60405180910390fd5b600360008373ffffffffffffffffffffffffffffffffffffffff1673ffffffffffffffffffffffffffffffffffffffff168152602001908152602001600020549050919050565b6116cd6123ee565b73ffffffffffffffffffffffffffffffffffffffff166116eb6117d3565b73ffffffffffffffffffffffffffffffffffffffff1614611741576040517f08c379a0000000000000000000000000000000000000000000000000000000008152600401611738906143fb565b60405180910390fd5b61174b6000612860565b565b6117556123ee565b73ffffffffffffffffffffffffffffffffffffffff166117736117d3565b73ffffffffffffffffffffffffffffffffffffffff16146117c9576040517f08c379a00000000000000000000000000000000000000000000000000000000081526004016117c0906143fb565b60405180910390fd5b8060108190555050565b6000600a60009054906101000a900473ffffffffffffffffffffffffffffffffffffffff16905090565b60606001805461180c90614824565b80601f016020809104026020016040519081016040528092919081815260200182805461183890614824565b80156118855780601f1061185a57610100808354040283529160200191611885565b820191906000526020600020905b81548152906001019060200180831161186857829003601f168201915b5050505050905090565b601260029054906101000a900460ff1681565b601260009054906101000a900460ff16156118f2576040517f08c379a00000000000000000000000000000000000000000000000000000000081526004016118e99061441b565b60405180910390fd5b60006118fc610ec3565b905060008211611941576040517f08c379a0000000000000000000000000000000000000000000000000000000008152600401611938906144fb565b60405180910390fd5b601054821115611986576040517f08c379a000000000000000000000000000000000000000000000000000000000815260040161197d9061439b565b60405180910390fd5b600f5482826119959190614659565b11156119d6576040517f08c379a00000000000000000000000000000000000000000000000000000000081526004016119cd9061437b565b60405180910390fd5b6119de6117d3565b73ffffffffffffffffffffffffffffffffffffffff163373ffffffffffffffffffffffffffffffffffffffff1614611b5b5760011515601260029054906101000a900460ff1615151415611b0a57611a3533610ff3565b611a74576040517f08c379a0000000000000000000000000000000000000000000000000000000008152600401611a6b906144db565b60405180910390fd5b6000601460003373ffffffffffffffffffffffffffffffffffffffff1673ffffffffffffffffffffffffffffffffffffffff1681526020019081526020016000205490506011548382611ac79190614659565b1115611b08576040517f08c379a0000000000000000000000000000000000000000000000000000000008152600401611aff9061429b565b60405180910390fd5b505b81600e54611b1891906146e0565b341015611b5a576040517f08c379a0000000000000000000000000000000000000000000000000000000008152600401611b519061447b565b60405180910390fd5b5b6000600190505b828111611be657601460003373ffffffffffffffffffffffffffffffffffffffff1673ffffffffffffffffffffffffffffffffffffffff1681526020019081526020016000206000815480929190611bb990614887565b9190505550611bd3338284611bce9190614659565b612926565b8080611bde90614887565b915050611b62565b505050565b611bfd611bf66123ee565b8383612944565b5050565b611c096123ee565b73ffffffffffffffffffffffffffffffffffffffff16611c276117d3565b73ffffffffffffffffffffffffffffffffffffffff1614611c7d576040517f08c379a0000000000000000000000000000000000000000000000000000000008152600401611c74906143fb565b60405180910390fd5b6001601260016101000a81548160ff021916908315150217905550565b611cab611ca56123ee565b8361251b565b611cea576040517f08c379a0000000000000000000000000000000000000000000000000000000008152600401611ce19061449b565b60405180910390fd5b611cf684848484612ab1565b50505050565b60138181548110611d0c57600080fd5b906000526020600020016000915054906101000a900473ffffffffffffffffffffffffffffffffffffffff1681565b60115481565b600c8054611d4e90614824565b80601f0160208091040260200160405190810160405280929190818152602001828054611d7a90614824565b8015611dc75780601f10611d9c57610100808354040283529160200191611dc7565b820191906000526020600020905b815481529060010190602001808311611daa57829003601f168201915b505050505081565b6060611dda826123f6565b611e19576040517f08c379a0000000000000000000000000000000000000000000000000000000008152600401611e109061443b565b60405180910390fd5b60001515601260019054906101000a900460ff1615151415611ec757600d8054611e4290614824565b80601f0160208091040260200160405190810160405280929190818152602001828054611e6e90614824565b8015611ebb5780601f10611e9057610100808354040283529160200191611ebb565b820191906000526020600020905b815481529060010190602001808311611e9e57829003601f168201915b50505050509050611f23565b6000611ed1612b0d565b90506000815111611ef15760405180602001604052806000815250611f1f565b80611efb84612b9f565b600c604051602001611f0f939291906140ef565b6040516020818303038152906040525b9150505b919050565b611f306123ee565b73ffffffffffffffffffffffffffffffffffffffff16611f4e6117d3565b73ffffffffffffffffffffffffffffffffffffffff1614611fa4576040517f08c379a0000000000000000000000000000000000000000000000000000000008152600401611f9b906143fb565b60405180910390fd5b8060118190555050565b600f5481565b611fbc6123ee565b73ffffffffffffffffffffffffffffffffffffffff16611fda6117d3565b73ffffffffffffffffffffffffffffffffffffffff1614612030576040517f08c379a0000000000000000000000000000000000000000000000000000000008152600401612027906143fb565b60405180910390fd5b80600c908051906020019061204692919061357d565b5050565b6000600560008473ffffffffffffffffffffffffffffffffffffffff1673ffffffffffffffffffffffffffffffffffffffff16815260200190815260200160002060008373ffffffffffffffffffffffffffffffffffffffff1673ffffffffffffffffffffffffffffffffffffffff16815260200190815260200160002060009054906101000a900460ff16905092915050565b6120e66123ee565b73ffffffffffffffffffffffffffffffffffffffff166121046117d3565b73ffffffffffffffffffffffffffffffffffffffff161461215a576040517f08c379a0000000000000000000000000000000000000000000000000000000008152600401612151906143fb565b60405180910390fd5b601360006121689190613603565b818160139190612179929190613624565b505050565b6121866123ee565b73ffffffffffffffffffffffffffffffffffffffff166121a46117d3565b73ffffffffffffffffffffffffffffffffffffffff16146121fa576040517f08c379a00000000000000000000000000000000000000000000000000000000081526004016121f1906143fb565b60405180910390fd5b80600d908051906020019061221092919061357d565b5050565b61221c6123ee565b73ffffffffffffffffffffffffffffffffffffffff1661223a6117d3565b73ffffffffffffffffffffffffffffffffffffffff1614612290576040517f08c379a0000000000000000000000000000000000000000000000000000000008152600401612287906143fb565b60405180910390fd5b600073ffffffffffffffffffffffffffffffffffffffff168173ffffffffffffffffffffffffffffffffffffffff161415612300576040517f08c379a00000000000000000000000000000000000000000000000000000000081526004016122f79061423b565b60405180910390fd5b61230981612860565b50565b60007f80ac58cd000000000000000000000000000000000000000000000000000000007bffffffffffffffffffffffffffffffffffffffffffffffffffffffff1916827bffffffffffffffffffffffffffffffffffffffffffffffffffffffff191614806123d757507f5b5e139f000000000000000000000000000000000000000000000000000000007bffffffffffffffffffffffffffffffffffffffffffffffffffffffff1916827bffffffffffffffffffffffffffffffffffffffffffffffffffffffff1916145b806123e757506123e682612d00565b5b9050919050565b600033905090565b60008073ffffffffffffffffffffffffffffffffffffffff166002600084815260200190815260200160002060009054906101000a900473ffffffffffffffffffffffffffffffffffffffff1673ffffffffffffffffffffffffffffffffffffffff1614159050919050565b816004600083815260200190815260200160002060006101000a81548173ffffffffffffffffffffffffffffffffffffffff021916908373ffffffffffffffffffffffffffffffffffffffff160217905550808273ffffffffffffffffffffffffffffffffffffffff166124d58361155b565b73ffffffffffffffffffffffffffffffffffffffff167f8c5be1e5ebec7d5bd14f71427d1e84f3dd0314c0f7b2291e5b200ac8c7c3b92560405160405180910390a45050565b6000612526826123f6565b612565576040517f08c379a000000000000000000000000000000000000000000000000000000000815260040161255c906142fb565b60405180910390fd5b60006125708361155b565b90508073ffffffffffffffffffffffffffffffffffffffff168473ffffffffffffffffffffffffffffffffffffffff1614806125df57508373ffffffffffffffffffffffffffffffffffffffff166125c784610bf9565b73ffffffffffffffffffffffffffffffffffffffff16145b806125f057506125ef818561204a565b5b91505092915050565b8273ffffffffffffffffffffffffffffffffffffffff166126198261155b565b73ffffffffffffffffffffffffffffffffffffffff161461266f576040517f08c379a00000000000000000000000000000000000000000000000000000000081526004016126669061425b565b60405180910390fd5b600073ffffffffffffffffffffffffffffffffffffffff168273ffffffffffffffffffffffffffffffffffffffff1614156126df576040517f08c379a00000000000000000000000000000000000000000000000000000000081526004016126d6906142bb565b60405180910390fd5b6126ea838383612d6a565b6126f5600082612462565b6001600360008573ffffffffffffffffffffffffffffffffffffffff1673ffffffffffffffffffffffffffffffffffffffff1681526020019081526020016000206000828254612745919061473a565b925050819055506001600360008473ffffffffffffffffffffffffffffffffffffffff1673ffffffffffffffffffffffffffffffffffffffff168152602001908152602001600020600082825461279c9190614659565b92505081905550816002600083815260200190815260200160002060006101000a81548173ffffffffffffffffffffffffffffffffffffffff021916908373ffffffffffffffffffffffffffffffffffffffff160217905550808273ffffffffffffffffffffffffffffffffffffffff168473ffffffffffffffffffffffffffffffffffffffff167fddf252ad1be2c89b69c2b068fc378daa952ba7f163c4a11628f55a4df523b3ef60405160405180910390a461285b838383612e7e565b505050565b6000600a60009054906101000a900473ffffffffffffffffffffffffffffffffffffffff16905081600a60006101000a81548173ffffffffffffffffffffffffffffffffffffffff021916908373ffffffffffffffffffffffffffffffffffffffff1602179055508173ffffffffffffffffffffffffffffffffffffffff168173ffffffffffffffffffffffffffffffffffffffff167f8be0079c531659141344cd1fd0a4f28419497f9722a3daafe3b4186f6b6457e060405160405180910390a35050565b612940828260405180602001604052806000815250612e83565b5050565b8173ffffffffffffffffffffffffffffffffffffffff168373ffffffffffffffffffffffffffffffffffffffff1614156129b3576040517f08c379a00000000000000000000000000000000000000000000000000000000081526004016129aa906142db565b60405180910390fd5b80600560008573ffffffffffffffffffffffffffffffffffffffff1673ffffffffffffffffffffffffffffffffffffffff16815260200190815260200160002060008473ffffffffffffffffffffffffffffffffffffffff1673ffffffffffffffffffffffffffffffffffffffff16815260200190815260200160002060006101000a81548160ff0219169083151502179055508173ffffffffffffffffffffffffffffffffffffffff168373ffffffffffffffffffffffffffffffffffffffff167f17307eab39ab6107e8899845ad3d59bd9653f200f220920489ca2b5937696c3183604051612aa491906141be565b60405180910390a3505050565b612abc8484846125f9565b612ac884848484612ede565b612b07576040517f08c379a0000000000000000000000000000000000000000000000000000000008152600401612afe9061421b565b60405180910390fd5b50505050565b6060600b8054612b1c90614824565b80601f0160208091040260200160405190810160405280929190818152602001828054612b4890614824565b8015612b955780601f10612b6a57610100808354040283529160200191612b95565b820191906000526020600020905b815481529060010190602001808311612b7857829003601f168201915b5050505050905090565b60606000821415612be7576040518060400160405280600181526020017f30000000000000000000000000000000000000000000000000000000000000008152509050612cfb565b600082905060005b60008214612c19578080612c0290614887565b915050600a82612c1291906146af565b9150612bef565b60008167ffffffffffffffff811115612c3557612c346149ec565b5b6040519080825280601f01601f191660200182016040528015612c675781602001600182028036833780820191505090505b5090505b60008514612cf457600182612c80919061473a565b9150600a85612c8f91906148d0565b6030612c9b9190614659565b60f81b818381518110612cb157612cb06149bd565b5b60200101907effffffffffffffffffffffffffffffffffffffffffffffffffffffffffffff1916908160001a905350600a85612ced91906146af565b9450612c6b565b8093505050505b919050565b60007f01ffc9a7000000000000000000000000000000000000000000000000000000007bffffffffffffffffffffffffffffffffffffffffffffffffffffffff1916827bffffffffffffffffffffffffffffffffffffffffffffffffffffffff1916149050919050565b612d75838383613075565b600073ffffffffffffffffffffffffffffffffffffffff168373ffffffffffffffffffffffffffffffffffffffff161415612db857612db38161307a565b612df7565b8173ffffffffffffffffffffffffffffffffffffffff168373ffffffffffffffffffffffffffffffffffffffff1614612df657612df583826130c3565b5b5b600073ffffffffffffffffffffffffffffffffffffffff168273ffffffffffffffffffffffffffffffffffffffff161415612e3a57612e3581613230565b612e79565b8273ffffffffffffffffffffffffffffffffffffffff168273ffffffffffffffffffffffffffffffffffffffff1614612e7857612e778282613301565b5b5b505050565b505050565b612e8d8383613380565b612e9a6000848484612ede565b612ed9576040517f08c379a0000000000000000000000000000000000000000000000000000000008152600401612ed09061421b565b60405180910390fd5b505050565b6000612eff8473ffffffffffffffffffffffffffffffffffffffff1661355a565b15613068578373ffffffffffffffffffffffffffffffffffffffff1663150b7a02612f286123ee565b8786866040518563ffffffff1660e01b8152600401612f4a9493929190614150565b602060405180830381600087803b158015612f6457600080fd5b505af1925050508015612f9557506040513d601f19601f82011682018060405250810190612f929190613aea565b60015b613018573d8060008114612fc5576040519150601f19603f3d011682016040523d82523d6000602084013e612fca565b606091505b50600081511415613010576040517f08c379a00000000000000000000000000000000000000000000000000000000081526004016130079061421b565b60405180910390fd5b805181602001fd5b63150b7a0260e01b7bffffffffffffffffffffffffffffffffffffffffffffffffffffffff1916817bffffffffffffffffffffffffffffffffffffffffffffffffffffffff19161491505061306d565b600190505b949350505050565b505050565b6008805490506009600083815260200190815260200160002081905550600881908060018154018082558091505060019003906000526020600020016000909190919091505550565b600060016130d08461160d565b6130da919061473a565b90506000600760008481526020019081526020016000205490508181146131bf576000600660008673ffffffffffffffffffffffffffffffffffffffff1673ffffffffffffffffffffffffffffffffffffffff168152602001908152602001600020600084815260200190815260200160002054905080600660008773ffffffffffffffffffffffffffffffffffffffff1673ffffffffffffffffffffffffffffffffffffffff168152602001908152602001600020600084815260200190815260200160002081905550816007600083815260200190815260200160002081905550505b6007600084815260200190815260200160002060009055600660008573ffffffffffffffffffffffffffffffffffffffff1673ffffffffffffffffffffffffffffffffffffffff16815260200190815260200160002060008381526020019081526020016000206000905550505050565b60006001600880549050613244919061473a565b9050600060096000848152602001908152602001600020549050600060088381548110613274576132736149bd565b5b906000526020600020015490508060088381548110613296576132956149bd565b5b9060005260206000200181905550816009600083815260200190815260200160002081905550600960008581526020019081526020016000206000905560088054806132e5576132e461498e565b5b6001900381819060005260206000200160009055905550505050565b600061330c8361160d565b905081600660008573ffffffffffffffffffffffffffffffffffffffff1673ffffffffffffffffffffffffffffffffffffffff168152602001908152602001600020600083815260200190815260200160002081905550806007600084815260200190815260200160002081905550505050565b600073ffffffffffffffffffffffffffffffffffffffff168273ffffffffffffffffffffffffffffffffffffffff1614156133f0576040517f08c379a00000000000000000000000000000000000000000000000000000000081526004016133e7906143bb565b60405180910390fd5b6133f9816123f6565b15613439576040517f08c379a00000000000000000000000000000000000000000000000000000000081526004016134309061427b565b60405180910390fd5b61344560008383612d6a565b6001600360008473ffffffffffffffffffffffffffffffffffffffff1673ffffffffffffffffffffffffffffffffffffffff16815260200190815260200160002060008282546134959190614659565b92505081905550816002600083815260200190815260200160002060006101000a81548173ffffffffffffffffffffffffffffffffffffffff021916908373ffffffffffffffffffffffffffffffffffffffff160217905550808273ffffffffffffffffffffffffffffffffffffffff16600073ffffffffffffffffffffffffffffffffffffffff167fddf252ad1be2c89b69c2b068fc378daa952ba7f163c4a11628f55a4df523b3ef60405160405180910390a461355660008383612e7e565b5050565b6000808273ffffffffffffffffffffffffffffffffffffffff163b119050919050565b82805461358990614824565b90600052602060002090601f0160209004810192826135ab57600085556135f2565b82601f106135c457805160ff19168380011785556135f2565b828001600101855582156135f2579182015b828111156135f15782518255916020019190600101906135d6565b5b5090506135ff91906136c4565b5090565b508054600082559060005260206000209081019061362191906136c4565b50565b8280548282559060005260206000209081019282156136b3579160200282015b828111156136b257823573ffffffffffffffffffffffffffffffffffffffff168260006101000a81548173ffffffffffffffffffffffffffffffffffffffff021916908373ffffffffffffffffffffffffffffffffffffffff16021790555091602001919060010190613644565b5b5090506136c091906136c4565b5090565b5b808211156136dd5760008160009055506001016136c5565b5090565b60006136f46136ef8461455b565b614536565b9050828152602081018484840111156137105761370f614a2a565b5b61371b8482856147e2565b509392505050565b60006137366137318461458c565b614536565b90508281526020810184848401111561375257613751614a2a565b5b61375d8482856147e2565b509392505050565b60008135905061377481615088565b92915050565b60008083601f8401126137905761378f614a20565b5b8235905067ffffffffffffffff8111156137ad576137ac614a1b565b5b6020830191508360208202830111156137c9576137c8614a25565b5b9250929050565b6000813590506137df8161509f565b92915050565b6000813590506137f4816150b6565b92915050565b600081519050613809816150b6565b92915050565b600082601f83011261382457613823614a20565b5b81356138348482602086016136e1565b91505092915050565b600082601f83011261385257613851614a20565b5b8135613862848260208601613723565b91505092915050565b60008135905061387a816150cd565b92915050565b60006020828403121561389657613895614a34565b5b60006138a484828501613765565b91505092915050565b600080604083850312156138c4576138c3614a34565b5b60006138d285828601613765565b92505060206138e385828601613765565b9150509250929050565b60008060006060848603121561390657613905614a34565b5b600061391486828701613765565b935050602061392586828701613765565b92505060406139368682870161386b565b9150509250925092565b6000806000806080858703121561395a57613959614a34565b5b600061396887828801613765565b945050602061397987828801613765565b935050604061398a8782880161386b565b925050606085013567ffffffffffffffff8111156139ab576139aa614a2f565b5b6139b78782880161380f565b91505092959194509250565b600080604083850312156139da576139d9614a34565b5b60006139e885828601613765565b92505060206139f9858286016137d0565b9150509250929050565b60008060408385031215613a1a57613a19614a34565b5b6000613a2885828601613765565b9250506020613a398582860161386b565b9150509250929050565b60008060208385031215613a5a57613a59614a34565b5b600083013567ffffffffffffffff811115613a7857613a77614a2f565b5b613a848582860161377a565b92509250509250929050565b600060208284031215613aa657613aa5614a34565b5b6000613ab4848285016137d0565b91505092915050565b600060208284031215613ad357613ad2614a34565b5b6000613ae1848285016137e5565b91505092915050565b600060208284031215613b0057613aff614a34565b5b6000613b0e848285016137fa565b91505092915050565b600060208284031215613b2d57613b2c614a34565b5b600082013567ffffffffffffffff811115613b4b57613b4a614a2f565b5b613b578482850161383d565b91505092915050565b600060208284031215613b7657613b75614a34565b5b6000613b848482850161386b565b91505092915050565b6000613b9983836140d1565b60208301905092915050565b613bae8161476e565b82525050565b6000613bbf826145e2565b613bc98185614610565b9350613bd4836145bd565b8060005b83811015613c05578151613bec8882613b8d565b9750613bf783614603565b925050600181019050613bd8565b5085935050505092915050565b613c1b81614780565b82525050565b6000613c2c826145ed565b613c368185614621565b9350613c468185602086016147f1565b613c4f81614a39565b840191505092915050565b6000613c65826145f8565b613c6f818561463d565b9350613c7f8185602086016147f1565b613c8881614a39565b840191505092915050565b6000613c9e826145f8565b613ca8818561464e565b9350613cb88185602086016147f1565b80840191505092915050565b60008154613cd181614824565b613cdb818661464e565b94506001821660008114613cf65760018114613d0757613d3a565b60ff19831686528186019350613d3a565b613d10856145cd565b60005b83811015613d3257815481890152600182019150602081019050613d13565b838801955050505b50505092915050565b6000613d50602b8361463d565b9150613d5b82614a4a565b604082019050919050565b6000613d7360328361463d565b9150613d7e82614a99565b604082019050919050565b6000613d9660268361463d565b9150613da182614ae8565b604082019050919050565b6000613db960258361463d565b9150613dc482614b37565b604082019050919050565b6000613ddc601c8361463d565b9150613de782614b86565b602082019050919050565b6000613dff601c8361463d565b9150613e0a82614baf565b602082019050919050565b6000613e2260248361463d565b9150613e2d82614bd8565b604082019050919050565b6000613e4560198361463d565b9150613e5082614c27565b602082019050919050565b6000613e68602c8361463d565b9150613e7382614c50565b604082019050919050565b6000613e8b60388361463d565b9150613e9682614c9f565b604082019050919050565b6000613eae602a8361463d565b9150613eb982614cee565b604082019050919050565b6000613ed160298361463d565b9150613edc82614d3d565b604082019050919050565b6000613ef460168361463d565b9150613eff82614d8c565b602082019050919050565b6000613f1760248361463d565b9150613f2282614db5565b604082019050919050565b6000613f3a60208361463d565b9150613f4582614e04565b602082019050919050565b6000613f5d602c8361463d565b9150613f6882614e2d565b604082019050919050565b6000613f8060208361463d565b9150613f8b82614e7c565b602082019050919050565b6000613fa360168361463d565b9150613fae82614ea5565b602082019050919050565b6000613fc6602f8361463d565b9150613fd182614ece565b604082019050919050565b6000613fe960218361463d565b9150613ff482614f1d565b604082019050919050565b600061400c600083614632565b915061401782614f6c565b600082019050919050565b600061402f60128361463d565b915061403a82614f6f565b602082019050919050565b600061405260318361463d565b915061405d82614f98565b604082019050919050565b6000614075602c8361463d565b915061408082614fe7565b604082019050919050565b600061409860178361463d565b91506140a382615036565b602082019050919050565b60006140bb601b8361463d565b91506140c68261505f565b602082019050919050565b6140da816147d8565b82525050565b6140e9816147d8565b82525050565b60006140fb8286613c93565b91506141078285613c93565b91506141138284613cc4565b9150819050949350505050565b600061412b82613fff565b9150819050919050565b600060208201905061414a6000830184613ba5565b92915050565b60006080820190506141656000830187613ba5565b6141726020830186613ba5565b61417f60408301856140e0565b81810360608301526141918184613c21565b905095945050505050565b600060208201905081810360008301526141b68184613bb4565b905092915050565b60006020820190506141d36000830184613c12565b92915050565b600060208201905081810360008301526141f38184613c5a565b905092915050565b6000602082019050818103600083015261421481613d43565b9050919050565b6000602082019050818103600083015261423481613d66565b9050919050565b6000602082019050818103600083015261425481613d89565b9050919050565b6000602082019050818103600083015261427481613dac565b9050919050565b6000602082019050818103600083015261429481613dcf565b9050919050565b600060208201905081810360008301526142b481613df2565b9050919050565b600060208201905081810360008301526142d481613e15565b9050919050565b600060208201905081810360008301526142f481613e38565b9050919050565b6000602082019050818103600083015261431481613e5b565b9050919050565b6000602082019050818103600083015261433481613e7e565b9050919050565b6000602082019050818103600083015261435481613ea1565b9050919050565b6000602082019050818103600083015261437481613ec4565b9050919050565b6000602082019050818103600083015261439481613ee7565b9050919050565b600060208201905081810360008301526143b481613f0a565b9050919050565b600060208201905081810360008301526143d481613f2d565b9050919050565b600060208201905081810360008301526143f481613f50565b9050919050565b6000602082019050818103600083015261441481613f73565b9050919050565b6000602082019050818103600083015261443481613f96565b9050919050565b6000602082019050818103600083015261445481613fb9565b9050919050565b6000602082019050818103600083015261447481613fdc565b9050919050565b6000602082019050818103600083015261449481614022565b9050919050565b600060208201905081810360008301526144b481614045565b9050919050565b600060208201905081810360008301526144d481614068565b9050919050565b600060208201905081810360008301526144f48161408b565b9050919050565b60006020820190508181036000830152614514816140ae565b9050919050565b600060208201905061453060008301846140e0565b92915050565b6000614540614551565b905061454c8282614856565b919050565b6000604051905090565b600067ffffffffffffffff821115614576576145756149ec565b5b61457f82614a39565b9050602081019050919050565b600067ffffffffffffffff8211156145a7576145a66149ec565b5b6145b082614a39565b9050602081019050919050565b6000819050602082019050919050565b60008190508160005260206000209050919050565b600081519050919050565b600081519050919050565b600081519050919050565b6000602082019050919050565b600082825260208201905092915050565b600082825260208201905092915050565b600081905092915050565b600082825260208201905092915050565b600081905092915050565b6000614664826147d8565b915061466f836147d8565b9250827fffffffffffffffffffffffffffffffffffffffffffffffffffffffffffffffff038211156146a4576146a3614901565b5b828201905092915050565b60006146ba826147d8565b91506146c5836147d8565b9250826146d5576146d4614930565b5b828204905092915050565b60006146eb826147d8565b91506146f6836147d8565b9250817fffffffffffffffffffffffffffffffffffffffffffffffffffffffffffffffff048311821515161561472f5761472e614901565b5b828202905092915050565b6000614745826147d8565b9150614750836147d8565b92508282101561476357614762614901565b5b828203905092915050565b6000614779826147b8565b9050919050565b60008115159050919050565b60007fffffffff0000000000000000000000000000000000000000000000000000000082169050919050565b600073ffffffffffffffffffffffffffffffffffffffff82169050919050565b6000819050919050565b82818337600083830152505050565b60005b8381101561480f5780820151818401526020810190506147f4565b8381111561481e576000848401525b50505050565b6000600282049050600182168061483c57607f821691505b602082108114156148505761484f61495f565b5b50919050565b61485f82614a39565b810181811067ffffffffffffffff8211171561487e5761487d6149ec565b5b80604052505050565b6000614892826147d8565b91507fffffffffffffffffffffffffffffffffffffffffffffffffffffffffffffffff8214156148c5576148c4614901565b5b600182019050919050565b60006148db826147d8565b91506148e6836147d8565b9250826148f6576148f5614930565b5b828206905092915050565b7f4e487b7100000000000000000000000000000000000000000000000000000000600052601160045260246000fd5b7f4e487b7100000000000000000000000000000000000000000000000000000000600052601260045260246000fd5b7f4e487b7100000000000000000000000000000000000000000000000000000000600052602260045260246000fd5b7f4e487b7100000000000000000000000000000000000000000000000000000000600052603160045260246000fd5b7f4e487b7100000000000000000000000000000000000000000000000000000000600052603260045260246000fd5b7f4e487b7100000000000000000000000000000000000000000000000000000000600052604160045260246000fd5b600080fd5b600080fd5b600080fd5b600080fd5b600080fd5b600080fd5b6000601f19601f8301169050919050565b7f455243373231456e756d657261626c653a206f776e657220696e646578206f7560008201527f74206f6620626f756e6473000000000000000000000000000000000000000000602082015250565b7f4552433732313a207472616e7366657220746f206e6f6e20455243373231526560008201527f63656976657220696d706c656d656e7465720000000000000000000000000000602082015250565b7f4f776e61626c653a206e6577206f776e657220697320746865207a65726f206160008201527f6464726573730000000000000000000000000000000000000000000000000000602082015250565b7f4552433732313a207472616e736665722066726f6d20696e636f72726563742060008201527f6f776e6572000000000000000000000000000000000000000000000000000000602082015250565b7f4552433732313a20746f6b656e20616c7265616479206d696e74656400000000600082015250565b7f6d6178204e465420706572206164647265737320657863656564656400000000600082015250565b7f4552433732313a207472616e7366657220746f20746865207a65726f2061646460008201527f7265737300000000000000000000000000000000000000000000000000000000602082015250565b7f4552433732313a20617070726f766520746f2063616c6c657200000000000000600082015250565b7f4552433732313a206f70657261746f7220717565727920666f72206e6f6e657860008201527f697374656e7420746f6b656e0000000000000000000000000000000000000000602082015250565b7f4552433732313a20617070726f76652063616c6c6572206973206e6f74206f7760008201527f6e6572206e6f7220617070726f76656420666f7220616c6c0000000000000000602082015250565b7f4552433732313a2062616c616e636520717565727920666f7220746865207a6560008201527f726f206164647265737300000000000000000000000000000000000000000000602082015250565b7f4552433732313a206f776e657220717565727920666f72206e6f6e657869737460008201527f656e7420746f6b656e0000000000000000000000000000000000000000000000602082015250565b7f6d6178204e4654206c696d697420657863656564656400000000000000000000600082015250565b7f6d6178206d696e7420616d6f756e74207065722073657373696f6e206578636560008201527f6564656400000000000000000000000000000000000000000000000000000000602082015250565b7f4552433732313a206d696e7420746f20746865207a65726f2061646472657373600082015250565b7f4552433732313a20617070726f76656420717565727920666f72206e6f6e657860008201527f697374656e7420746f6b656e0000000000000000000000000000000000000000602082015250565b7f4f776e61626c653a2063616c6c6572206973206e6f7420746865206f776e6572600082015250565b7f74686520636f6e74726163742069732070617573656400000000000000000000600082015250565b7f4552433732314d657461646174613a2055524920717565727920666f72206e6f60008201527f6e6578697374656e7420746f6b656e0000000000000000000000000000000000602082015250565b7f4552433732313a20617070726f76616c20746f2063757272656e74206f776e6560008201527f7200000000000000000000000000000000000000000000000000000000000000602082015250565b50565b7f696e73756666696369656e742066756e64730000000000000000000000000000600082015250565b7f4552433732313a207472616e736665722063616c6c6572206973206e6f74206f60008201527f776e6572206e6f7220617070726f766564000000000000000000000000000000602082015250565b7f455243373231456e756d657261626c653a20676c6f62616c20696e646578206f60008201527f7574206f6620626f756e64730000000000000000000000000000000000000000602082015250565b7f75736572206973206e6f742077686974656c6973746564000000000000000000600082015250565b7f6e65656420746f206d696e74206174206c656173742031204e46540000000000600082015250565b6150918161476e565b811461509c57600080fd5b50565b6150a881614780565b81146150b357600080fd5b50565b6150bf8161478c565b81146150ca57600080fd5b50565b6150d6816147d8565b81146150e157600080fd5b5056fea2646970667358221220930ee7683a46ee03326cd6b8dea05b2dda66d7b5ea10d84c45ff13a8edaaf22f64736f6c63430008070033",
  "linkReferences": {},
  "deployedLinkReferences": {}
}